{
  "contractName": "VolcanoToken",
  "abi": [
    {
      "anonymous": false,
      "inputs": [
        {
          "indexed": true,
          "internalType": "address",
          "name": "owner",
          "type": "address"
        },
        {
          "indexed": true,
          "internalType": "address",
          "name": "approved",
          "type": "address"
        },
        {
          "indexed": true,
          "internalType": "uint256",
          "name": "tokenId",
          "type": "uint256"
        }
      ],
      "name": "Approval",
      "type": "event"
    },
    {
      "anonymous": false,
      "inputs": [
        {
          "indexed": true,
          "internalType": "address",
          "name": "owner",
          "type": "address"
        },
        {
          "indexed": true,
          "internalType": "address",
          "name": "operator",
          "type": "address"
        },
        {
          "indexed": false,
          "internalType": "bool",
          "name": "approved",
          "type": "bool"
        }
      ],
      "name": "ApprovalForAll",
      "type": "event"
    },
    {
      "anonymous": false,
      "inputs": [
        {
          "indexed": false,
          "internalType": "address",
          "name": "_seller",
          "type": "address"
        },
        {
          "indexed": false,
          "internalType": "address",
          "name": "_buyer",
          "type": "address"
        },
        {
          "indexed": false,
          "internalType": "uint256",
          "name": "_price",
          "type": "uint256"
        }
      ],
      "name": "NftBought",
      "type": "event"
    },
    {
      "anonymous": false,
      "inputs": [
        {
          "indexed": true,
          "internalType": "address",
          "name": "previousOwner",
          "type": "address"
        },
        {
          "indexed": true,
          "internalType": "address",
          "name": "newOwner",
          "type": "address"
        }
      ],
      "name": "OwnershipTransferred",
      "type": "event"
    },
    {
      "anonymous": false,
      "inputs": [
        {
          "indexed": true,
          "internalType": "address",
          "name": "from",
          "type": "address"
        },
        {
          "indexed": true,
          "internalType": "address",
          "name": "to",
          "type": "address"
        },
        {
          "indexed": true,
          "internalType": "uint256",
          "name": "tokenId",
          "type": "uint256"
        }
      ],
      "name": "Transfer",
      "type": "event"
    },
    {
      "inputs": [
        {
          "internalType": "address",
          "name": "to",
          "type": "address"
        },
        {
          "internalType": "uint256",
          "name": "tokenId",
          "type": "uint256"
        }
      ],
      "name": "approve",
      "outputs": [],
      "stateMutability": "nonpayable",
      "type": "function"
    },
    {
      "inputs": [
        {
          "internalType": "address",
          "name": "owner",
          "type": "address"
        }
      ],
      "name": "balanceOf",
      "outputs": [
        {
          "internalType": "uint256",
          "name": "",
          "type": "uint256"
        }
      ],
      "stateMutability": "view",
      "type": "function",
      "constant": true
    },
    {
      "inputs": [
        {
          "internalType": "uint256",
          "name": "tokenId",
          "type": "uint256"
        }
      ],
      "name": "getApproved",
      "outputs": [
        {
          "internalType": "address",
          "name": "",
          "type": "address"
        }
      ],
      "stateMutability": "view",
      "type": "function",
      "constant": true
    },
    {
      "inputs": [
        {
          "internalType": "address",
          "name": "owner",
          "type": "address"
        },
        {
          "internalType": "address",
          "name": "operator",
          "type": "address"
        }
      ],
      "name": "isApprovedForAll",
      "outputs": [
        {
          "internalType": "bool",
          "name": "",
          "type": "bool"
        }
      ],
      "stateMutability": "view",
      "type": "function",
      "constant": true
    },
    {
      "inputs": [],
      "name": "marketCap",
      "outputs": [
        {
          "internalType": "uint256",
          "name": "",
          "type": "uint256"
        }
      ],
      "stateMutability": "view",
      "type": "function",
      "constant": true
    },
    {
      "inputs": [],
      "name": "name",
      "outputs": [
        {
          "internalType": "string",
          "name": "",
          "type": "string"
        }
      ],
      "stateMutability": "view",
      "type": "function",
      "constant": true
    },
    {
      "inputs": [],
      "name": "owner",
      "outputs": [
        {
          "internalType": "address",
          "name": "",
          "type": "address"
        }
      ],
      "stateMutability": "view",
      "type": "function",
      "constant": true
    },
    {
      "inputs": [
        {
          "internalType": "uint256",
          "name": "tokenId",
          "type": "uint256"
        }
      ],
      "name": "ownerOf",
      "outputs": [
        {
          "internalType": "address",
          "name": "",
          "type": "address"
        }
      ],
      "stateMutability": "view",
      "type": "function",
      "constant": true
    },
    {
      "inputs": [
        {
          "internalType": "address",
          "name": "",
          "type": "address"
        },
        {
          "internalType": "uint256",
          "name": "",
          "type": "uint256"
        }
      ],
      "name": "ownership",
      "outputs": [
        {
          "internalType": "uint256",
          "name": "timestamp",
          "type": "uint256"
        },
        {
          "internalType": "uint256",
          "name": "tokenId",
          "type": "uint256"
        },
        {
          "internalType": "string",
          "name": "tokenURI",
          "type": "string"
        }
      ],
      "stateMutability": "view",
      "type": "function",
      "constant": true
    },
    {
      "inputs": [],
      "name": "renounceOwnership",
      "outputs": [],
      "stateMutability": "nonpayable",
      "type": "function"
    },
    {
      "inputs": [
        {
          "internalType": "address",
          "name": "from",
          "type": "address"
        },
        {
          "internalType": "address",
          "name": "to",
          "type": "address"
        },
        {
          "internalType": "uint256",
          "name": "tokenId",
          "type": "uint256"
        }
      ],
      "name": "safeTransferFrom",
      "outputs": [],
      "stateMutability": "nonpayable",
      "type": "function"
    },
    {
      "inputs": [
        {
          "internalType": "address",
          "name": "from",
          "type": "address"
        },
        {
          "internalType": "address",
          "name": "to",
          "type": "address"
        },
        {
          "internalType": "uint256",
          "name": "tokenId",
          "type": "uint256"
        },
        {
          "internalType": "bytes",
          "name": "_data",
          "type": "bytes"
        }
      ],
      "name": "safeTransferFrom",
      "outputs": [],
      "stateMutability": "nonpayable",
      "type": "function"
    },
    {
      "inputs": [
        {
          "internalType": "address",
          "name": "operator",
          "type": "address"
        },
        {
          "internalType": "bool",
          "name": "approved",
          "type": "bool"
        }
      ],
      "name": "setApprovalForAll",
      "outputs": [],
      "stateMutability": "nonpayable",
      "type": "function"
    },
    {
      "inputs": [
        {
          "internalType": "bytes4",
          "name": "interfaceId",
          "type": "bytes4"
        }
      ],
      "name": "supportsInterface",
      "outputs": [
        {
          "internalType": "bool",
          "name": "",
          "type": "bool"
        }
      ],
      "stateMutability": "view",
      "type": "function",
      "constant": true
    },
    {
      "inputs": [],
      "name": "symbol",
      "outputs": [
        {
          "internalType": "string",
          "name": "",
          "type": "string"
        }
      ],
      "stateMutability": "view",
      "type": "function",
      "constant": true
    },
    {
      "inputs": [],
      "name": "tokenId",
      "outputs": [
        {
          "internalType": "uint256",
          "name": "",
          "type": "uint256"
        }
      ],
      "stateMutability": "view",
      "type": "function",
      "constant": true
    },
    {
      "inputs": [
        {
          "internalType": "uint256",
          "name": "",
          "type": "uint256"
        }
      ],
      "name": "tokenIdToPrice",
      "outputs": [
        {
          "internalType": "uint256",
          "name": "",
          "type": "uint256"
        }
      ],
      "stateMutability": "view",
      "type": "function",
      "constant": true
    },
    {
      "inputs": [
        {
          "internalType": "uint256",
          "name": "tokenId",
          "type": "uint256"
        }
      ],
      "name": "tokenURI",
      "outputs": [
        {
          "internalType": "string",
          "name": "",
          "type": "string"
        }
      ],
      "stateMutability": "view",
      "type": "function",
      "constant": true
    },
    {
      "inputs": [
        {
          "internalType": "address",
          "name": "from",
          "type": "address"
        },
        {
          "internalType": "address",
          "name": "to",
          "type": "address"
        },
        {
          "internalType": "uint256",
          "name": "tokenId",
          "type": "uint256"
        }
      ],
      "name": "transferFrom",
      "outputs": [],
      "stateMutability": "nonpayable",
      "type": "function"
    },
    {
      "inputs": [
        {
          "internalType": "address",
          "name": "newOwner",
          "type": "address"
        }
      ],
      "name": "transferOwnership",
      "outputs": [],
      "stateMutability": "nonpayable",
      "type": "function"
    },
    {
      "inputs": [
        {
          "internalType": "address",
          "name": "_user",
          "type": "address"
        }
      ],
      "name": "getOwnership",
      "outputs": [
        {
          "components": [
            {
              "internalType": "uint256",
              "name": "timestamp",
              "type": "uint256"
            },
            {
              "internalType": "uint256",
              "name": "tokenId",
              "type": "uint256"
            },
            {
              "internalType": "string",
              "name": "tokenURI",
              "type": "string"
            }
          ],
          "internalType": "struct VolcanoToken.Metadata[]",
          "name": "",
          "type": "tuple[]"
        }
      ],
      "stateMutability": "view",
      "type": "function",
      "constant": true
    },
    {
      "inputs": [
        {
          "internalType": "string",
          "name": "uri",
          "type": "string"
        }
      ],
      "name": "mint",
      "outputs": [],
      "stateMutability": "nonpayable",
      "type": "function"
    },
    {
      "inputs": [
        {
          "internalType": "uint256",
          "name": "_tokenId",
          "type": "uint256"
        }
      ],
      "name": "burn",
      "outputs": [],
      "stateMutability": "nonpayable",
      "type": "function"
    },
    {
      "inputs": [],
      "name": "getListTokensCirculating",
      "outputs": [
        {
          "components": [
            {
              "internalType": "uint256",
              "name": "tokenId",
              "type": "uint256"
            },
            {
              "internalType": "string",
              "name": "tokenURL",
              "type": "string"
            }
          ],
          "internalType": "struct VolcanoToken.VisualToken[]",
          "name": "",
          "type": "tuple[]"
        }
      ],
      "stateMutability": "view",
      "type": "function",
      "constant": true
    },
    {
      "inputs": [
        {
          "internalType": "address",
          "name": "_from",
          "type": "address"
        },
        {
          "internalType": "address",
          "name": "_to",
          "type": "address"
        },
        {
          "internalType": "uint256",
          "name": "_tokenId",
          "type": "uint256"
        }
      ],
      "name": "transfer",
      "outputs": [],
      "stateMutability": "nonpayable",
      "type": "function"
    },
    {
      "inputs": [
        {
          "internalType": "uint256",
          "name": "_tokenId",
          "type": "uint256"
        },
        {
          "internalType": "uint256",
          "name": "_price",
          "type": "uint256"
        }
      ],
      "name": "allowBuy",
      "outputs": [],
      "stateMutability": "nonpayable",
      "type": "function"
    },
    {
      "inputs": [
        {
          "internalType": "uint256",
          "name": "_tokenId",
          "type": "uint256"
        }
      ],
      "name": "disallowBuy",
      "outputs": [],
      "stateMutability": "nonpayable",
      "type": "function"
    },
    {
      "inputs": [
        {
          "internalType": "uint256",
          "name": "_tokenId",
          "type": "uint256"
        }
      ],
      "name": "buy",
      "outputs": [],
      "stateMutability": "payable",
      "type": "function",
      "payable": true
    }
  ],
  "bytecode": "0x6080604052600160075560006008553480156200001b57600080fd5b506040518060400160405280601881526020017f546f6b656e204e46542043687269737469616e204d6f726100000000000000008152506040518060400160405280600481526020017f5654434d00000000000000000000000000000000000000000000000000000000815250620000a86200009c620000e260201b60201c565b620000ea60201b60201c565b8160019080519060200190620000c0929190620001ae565b508060029080519060200190620000d9929190620001ae565b505050620002c3565b600033905090565b60008060009054906101000a900473ffffffffffffffffffffffffffffffffffffffff169050816000806101000a81548173ffffffffffffffffffffffffffffffffffffffff021916908373ffffffffffffffffffffffffffffffffffffffff1602179055508173ffffffffffffffffffffffffffffffffffffffff168173ffffffffffffffffffffffffffffffffffffffff167f8be0079c531659141344cd1fd0a4f28419497f9722a3daafe3b4186f6b6457e060405160405180910390a35050565b828054620001bc906200025e565b90600052602060002090601f016020900481019282620001e057600085556200022c565b82601f10620001fb57805160ff19168380011785556200022c565b828001600101855582156200022c579182015b828111156200022b5782518255916020019190600101906200020e565b5b5090506200023b91906200023f565b5090565b5b808211156200025a57600081600090555060010162000240565b5090565b600060028204905060018216806200027757607f821691505b602082108114156200028e576200028d62000294565b5b50919050565b7f4e487b7100000000000000000000000000000000000000000000000000000000600052602260045260246000fd5b614af480620002d36000396000f3fe6080604052600436106101b75760003560e01c80638da5cb5b116100ec578063d49913121161008a578063e985e9c511610064578063e985e9c5146105f9578063ee9bfc8c14610636578063f2fde38b14610675578063f4812eb91461069e576101b7565b8063d49913121461058b578063d85d3d27146105b4578063d96a094a146105dd576101b7565b8063b88d4fde116100c6578063b88d4fde146104d3578063bbb5e8d3146104fc578063beabacc814610525578063c87b56dd1461054e576101b7565b80638da5cb5b1461045457806395d89b411461047f578063a22cb465146104aa576101b7565b80632c135b9311610159578063529a00c511610133578063529a00c5146103985780636352211e146103c357806370a0823114610400578063715018a61461043d576101b7565b80632c135b931461031b57806342842e0e1461034657806342966c681461036f576101b7565b8063095ea7b311610195578063095ea7b31461026157806317d70f7c1461028a57806323b872dd146102b55780632b681a54146102de576101b7565b806301ffc9a7146101bc57806306fdde03146101f9578063081812fc14610224575b600080fd5b3480156101c857600080fd5b506101e360048036038101906101de91906133c7565b6106db565b6040516101f09190613bdc565b60405180910390f35b34801561020557600080fd5b5061020e6107bd565b60405161021b9190613bf7565b60405180910390f35b34801561023057600080fd5b5061024b6004803603810190610246919061346a565b61084f565b6040516102589190613afa565b60405180910390f35b34801561026d57600080fd5b5061028860048036038101906102839190613387565b6108d4565b005b34801561029657600080fd5b5061029f6109ec565b6040516102ac9190613f19565b60405180910390f35b3480156102c157600080fd5b506102dc60048036038101906102d79190613271565b6109f2565b005b3480156102ea57600080fd5b5061030560048036038101906103009190613204565b610a52565b6040516103129190613b98565b60405180910390f35b34801561032757600080fd5b50610330610b96565b60405161033d9190613f19565b60405180910390f35b34801561035257600080fd5b5061036d60048036038101906103689190613271565b610b9c565b005b34801561037b57600080fd5b506103966004803603810190610391919061346a565b610bbc565b005b3480156103a457600080fd5b506103ad610db9565b6040516103ba9190613bba565b60405180910390f35b3480156103cf57600080fd5b506103ea60048036038101906103e5919061346a565b610ec8565b6040516103f79190613afa565b60405180910390f35b34801561040c57600080fd5b5061042760048036038101906104229190613204565b610f7a565b6040516104349190613f19565b60405180910390f35b34801561044957600080fd5b50610452611032565b005b34801561046057600080fd5b506104696110ba565b6040516104769190613afa565b60405180910390f35b34801561048b57600080fd5b506104946110e3565b6040516104a19190613bf7565b60405180910390f35b3480156104b657600080fd5b506104d160048036038101906104cc9190613347565b611175565b005b3480156104df57600080fd5b506104fa60048036038101906104f591906132c4565b6112f6565b005b34801561050857600080fd5b50610523600480360381019061051e9190613497565b611358565b005b34801561053157600080fd5b5061054c60048036038101906105479190613271565b611434565b005b34801561055a57600080fd5b506105756004803603810190610570919061346a565b6114c5565b6040516105829190613bf7565b60405180910390f35b34801561059757600080fd5b506105b260048036038101906105ad919061346a565b61156c565b005b3480156105c057600080fd5b506105db60048036038101906105d69190613421565b611605565b005b6105f760048036038101906105f2919061346a565b6117e5565b005b34801561060557600080fd5b50610620600480360381019061061b9190613231565b6119b6565b60405161062d9190613bdc565b60405180910390f35b34801561064257600080fd5b5061065d60048036038101906106589190613387565b611a4a565b60405161066c93929190613f34565b60405180910390f35b34801561068157600080fd5b5061069c60048036038101906106979190613204565b611b19565b005b3480156106aa57600080fd5b506106c560048036038101906106c0919061346a565b611c11565b6040516106d29190613f19565b60405180910390f35b60007f80ac58cd000000000000000000000000000000000000000000000000000000007bffffffffffffffffffffffffffffffffffffffffffffffffffffffff1916827bffffffffffffffffffffffffffffffffffffffffffffffffffffffff191614806107a657507f5b5e139f000000000000000000000000000000000000000000000000000000007bffffffffffffffffffffffffffffffffffffffffffffffffffffffff1916827bffffffffffffffffffffffffffffffffffffffffffffffffffffffff1916145b806107b657506107b582611c29565b5b9050919050565b6060600180546107cc9061425a565b80601f01602080910402602001604051908101604052809291908181526020018280546107f89061425a565b80156108455780601f1061081a57610100808354040283529160200191610845565b820191906000526020600020905b81548152906001019060200180831161082857829003601f168201915b5050505050905090565b600061085a82611c93565b610899576040517f08c379a000000000000000000000000000000000000000000000000000000000815260040161089090613db9565b60405180910390fd5b6005600083815260200190815260200160002060009054906101000a900473ffffffffffffffffffffffffffffffffffffffff169050919050565b60006108df82610ec8565b90508073ffffffffffffffffffffffffffffffffffffffff168373ffffffffffffffffffffffffffffffffffffffff161415610950576040517f08c379a000000000000000000000000000000000000000000000000000000000815260040161094790613e79565b60405180910390fd5b8073ffffffffffffffffffffffffffffffffffffffff1661096f611cff565b73ffffffffffffffffffffffffffffffffffffffff16148061099e575061099d81610998611cff565b6119b6565b5b6109dd576040517f08c379a00000000000000000000000000000000000000000000000000000000081526004016109d490613d39565b60405180910390fd5b6109e78383611d07565b505050565b60075481565b610a036109fd611cff565b82611dc0565b610a42576040517f08c379a0000000000000000000000000000000000000000000000000000000008152600401610a3990613ed9565b60405180910390fd5b610a4d838383611e9e565b505050565b6060600960008373ffffffffffffffffffffffffffffffffffffffff1673ffffffffffffffffffffffffffffffffffffffff168152602001908152602001600020805480602002602001604051908101604052809291908181526020016000905b82821015610b8b57838290600052602060002090600302016040518060600160405290816000820154815260200160018201548152602001600282018054610afa9061425a565b80601f0160208091040260200160405190810160405280929190818152602001828054610b269061425a565b8015610b735780601f10610b4857610100808354040283529160200191610b73565b820191906000526020600020905b815481529060010190602001808311610b5657829003601f168201915b50505050508152505081526020019060010190610ab3565b505050509050919050565b60085481565b610bb7838383604051806020016040528060008152506112f6565b505050565b610bc4611cff565b73ffffffffffffffffffffffffffffffffffffffff16610be26110ba565b73ffffffffffffffffffffffffffffffffffffffff1614610c38576040517f08c379a0000000000000000000000000000000000000000000000000000000008152600401610c2f90613df9565b60405180910390fd5b610c4181610ec8565b73ffffffffffffffffffffffffffffffffffffffff16610c5f611cff565b73ffffffffffffffffffffffffffffffffffffffff1614610cb5576040517f08c379a0000000000000000000000000000000000000000000000000000000008152600401610cac90613ef9565b60405180910390fd5b610cbe816120fa565b610ccf610cc9611cff565b8261220b565b60086000815480929190610ce290614230565b919050555060005b600b60008060ff16815260200190815260200160002080549050811015610db55781600b60008060ff1681526020019081526020016000208281548110610d3457610d336143f3565b5b9060005260206000209060020201600001541415610da257600b60008060ff1681526020019081526020016000208181548110610d7457610d736143f3565b5b9060005260206000209060020201600080820160009055600182016000610d9b9190612e88565b5050610db5565b8080610dad906142bd565b915050610cea565b5050565b6060600b60008060ff168152602001908152602001600020805480602002602001604051908101604052809291908181526020016000905b82821015610ebf578382906000526020600020906002020160405180604001604052908160008201548152602001600182018054610e2e9061425a565b80601f0160208091040260200160405190810160405280929190818152602001828054610e5a9061425a565b8015610ea75780601f10610e7c57610100808354040283529160200191610ea7565b820191906000526020600020905b815481529060010190602001808311610e8a57829003601f168201915b50505050508152505081526020019060010190610df1565b50505050905090565b6000806003600084815260200190815260200160002060009054906101000a900473ffffffffffffffffffffffffffffffffffffffff169050600073ffffffffffffffffffffffffffffffffffffffff168173ffffffffffffffffffffffffffffffffffffffff161415610f71576040517f08c379a0000000000000000000000000000000000000000000000000000000008152600401610f6890613d79565b60405180910390fd5b80915050919050565b60008073ffffffffffffffffffffffffffffffffffffffff168273ffffffffffffffffffffffffffffffffffffffff161415610feb576040517f08c379a0000000000000000000000000000000000000000000000000000000008152600401610fe290613d59565b60405180910390fd5b600460008373ffffffffffffffffffffffffffffffffffffffff1673ffffffffffffffffffffffffffffffffffffffff168152602001908152602001600020549050919050565b61103a611cff565b73ffffffffffffffffffffffffffffffffffffffff166110586110ba565b73ffffffffffffffffffffffffffffffffffffffff16146110ae576040517f08c379a00000000000000000000000000000000000000000000000000000000081526004016110a590613df9565b60405180910390fd5b6110b86000612440565b565b60008060009054906101000a900473ffffffffffffffffffffffffffffffffffffffff16905090565b6060600280546110f29061425a565b80601f016020809104026020016040519081016040528092919081815260200182805461111e9061425a565b801561116b5780601f106111405761010080835404028352916020019161116b565b820191906000526020600020905b81548152906001019060200180831161114e57829003601f168201915b5050505050905090565b61117d611cff565b73ffffffffffffffffffffffffffffffffffffffff168273ffffffffffffffffffffffffffffffffffffffff1614156111eb576040517f08c379a00000000000000000000000000000000000000000000000000000000081526004016111e290613cf9565b60405180910390fd5b80600660006111f8611cff565b73ffffffffffffffffffffffffffffffffffffffff1673ffffffffffffffffffffffffffffffffffffffff16815260200190815260200160002060008473ffffffffffffffffffffffffffffffffffffffff1673ffffffffffffffffffffffffffffffffffffffff16815260200190815260200160002060006101000a81548160ff0219169083151502179055508173ffffffffffffffffffffffffffffffffffffffff166112a5611cff565b73ffffffffffffffffffffffffffffffffffffffff167f17307eab39ab6107e8899845ad3d59bd9653f200f220920489ca2b5937696c31836040516112ea9190613bdc565b60405180910390a35050565b611307611301611cff565b83611dc0565b611346576040517f08c379a000000000000000000000000000000000000000000000000000000000815260040161133d90613ed9565b60405180910390fd5b61135284848484612504565b50505050565b61136182610ec8565b73ffffffffffffffffffffffffffffffffffffffff1661137f611cff565b73ffffffffffffffffffffffffffffffffffffffff16146113d5576040517f08c379a00000000000000000000000000000000000000000000000000000000081526004016113cc90613eb9565b60405180910390fd5b60008111611418576040517f08c379a000000000000000000000000000000000000000000000000000000000815260040161140f90613e39565b60405180910390fd5b80600a6000848152602001908152602001600020819055505050565b61143d81610ec8565b73ffffffffffffffffffffffffffffffffffffffff168373ffffffffffffffffffffffffffffffffffffffff16146114aa576040517f08c379a00000000000000000000000000000000000000000000000000000000081526004016114a190613c19565b60405180910390fd5b6114b5838383610b9c565b6114c0838383612560565b505050565b60606114d082611c93565b61150f576040517f08c379a000000000000000000000000000000000000000000000000000000000815260040161150690613e59565b60405180910390fd5b600061151961291a565b905060008151116115395760405180602001604052806000815250611564565b8061154384612931565b604051602001611554929190613ad6565b6040516020818303038152906040525b915050919050565b61157581610ec8565b73ffffffffffffffffffffffffffffffffffffffff16611593611cff565b73ffffffffffffffffffffffffffffffffffffffff16146115e9576040517f08c379a00000000000000000000000000000000000000000000000000000000081526004016115e090613eb9565b60405180910390fd5b6000600a60008381526020019081526020016000208190555050565b611618611610611cff565b600754612a92565b600060096000611626611cff565b73ffffffffffffffffffffffffffffffffffffffff1673ffffffffffffffffffffffffffffffffffffffff16815260200190815260200160002090508060405180606001604052804281526020016007548152602001848152509080600181540180825580915050600190039060005260206000209060030201600090919091909150600082015181600001556020820151816001015560408201518160020190805190602001906116d9929190612ec8565b50505080600960006116e9611cff565b73ffffffffffffffffffffffffffffffffffffffff1673ffffffffffffffffffffffffffffffffffffffff168152602001908152602001600020908054611731929190612f4e565b5060086000815480929190611745906142bd565b9190505550600b60008060ff168152602001908152602001600020604051806040016040528060075481526020018481525090806001815401808255809150506001900390600052602060002090600202016000909190919091506000820151816000015560208201518160010190805190602001906117c6929190612ec8565b505050600760008154809291906117dc906142bd565b91905055505050565b6000600a600083815260200190815260200160002054905060008111611840576040517f08c379a000000000000000000000000000000000000000000000000000000000815260040161183790613c59565b60405180910390fd5b803414611882576040517f08c379a000000000000000000000000000000000000000000000000000000000815260040161187990613dd9565b60405180910390fd5b600061188c611cff565b9050600061189984610ec8565b90508073ffffffffffffffffffffffffffffffffffffffff168273ffffffffffffffffffffffffffffffffffffffff16141561190a576040517f08c379a000000000000000000000000000000000000000000000000000000000815260040161190190613e99565b60405180910390fd5b611915818386611434565b6000600a6000868152602001908152602001600020819055508073ffffffffffffffffffffffffffffffffffffffff166108fc349081150290604051600060405180830381858888f19350505050158015611974573d6000803e3d6000fd5b507f608f6ac9327c2bf4d3c77adf447d2c448ba7b0971e0aaa9aa03f7ac29d874a448183346040516119a893929190613b15565b60405180910390a150505050565b6000600660008473ffffffffffffffffffffffffffffffffffffffff1673ffffffffffffffffffffffffffffffffffffffff16815260200190815260200160002060008373ffffffffffffffffffffffffffffffffffffffff1673ffffffffffffffffffffffffffffffffffffffff16815260200190815260200160002060009054906101000a900460ff16905092915050565b60096020528160005260406000208181548110611a6657600080fd5b906000526020600020906003020160009150915050806000015490806001015490806002018054611a969061425a565b80601f0160208091040260200160405190810160405280929190818152602001828054611ac29061425a565b8015611b0f5780601f10611ae457610100808354040283529160200191611b0f565b820191906000526020600020905b815481529060010190602001808311611af257829003601f168201915b5050505050905083565b611b21611cff565b73ffffffffffffffffffffffffffffffffffffffff16611b3f6110ba565b73ffffffffffffffffffffffffffffffffffffffff1614611b95576040517f08c379a0000000000000000000000000000000000000000000000000000000008152600401611b8c90613df9565b60405180910390fd5b600073ffffffffffffffffffffffffffffffffffffffff168173ffffffffffffffffffffffffffffffffffffffff161415611c05576040517f08c379a0000000000000000000000000000000000000000000000000000000008152600401611bfc90613c79565b60405180910390fd5b611c0e81612440565b50565b600a6020528060005260406000206000915090505481565b60007f01ffc9a7000000000000000000000000000000000000000000000000000000007bffffffffffffffffffffffffffffffffffffffffffffffffffffffff1916827bffffffffffffffffffffffffffffffffffffffffffffffffffffffff1916149050919050565b60008073ffffffffffffffffffffffffffffffffffffffff166003600084815260200190815260200160002060009054906101000a900473ffffffffffffffffffffffffffffffffffffffff1673ffffffffffffffffffffffffffffffffffffffff1614159050919050565b600033905090565b816005600083815260200190815260200160002060006101000a81548173ffffffffffffffffffffffffffffffffffffffff021916908373ffffffffffffffffffffffffffffffffffffffff160217905550808273ffffffffffffffffffffffffffffffffffffffff16611d7a83610ec8565b73ffffffffffffffffffffffffffffffffffffffff167f8c5be1e5ebec7d5bd14f71427d1e84f3dd0314c0f7b2291e5b200ac8c7c3b92560405160405180910390a45050565b6000611dcb82611c93565b611e0a576040517f08c379a0000000000000000000000000000000000000000000000000000000008152600401611e0190613d19565b60405180910390fd5b6000611e1583610ec8565b90508073ffffffffffffffffffffffffffffffffffffffff168473ffffffffffffffffffffffffffffffffffffffff161480611e8457508373ffffffffffffffffffffffffffffffffffffffff16611e6c8461084f565b73ffffffffffffffffffffffffffffffffffffffff16145b80611e955750611e9481856119b6565b5b91505092915050565b8273ffffffffffffffffffffffffffffffffffffffff16611ebe82610ec8565b73ffffffffffffffffffffffffffffffffffffffff1614611f14576040517f08c379a0000000000000000000000000000000000000000000000000000000008152600401611f0b90613e19565b60405180910390fd5b600073ffffffffffffffffffffffffffffffffffffffff168273ffffffffffffffffffffffffffffffffffffffff161415611f84576040517f08c379a0000000000000000000000000000000000000000000000000000000008152600401611f7b90613cd9565b60405180910390fd5b611f8f838383612ab0565b611f9a600082611d07565b6001600460008573ffffffffffffffffffffffffffffffffffffffff1673ffffffffffffffffffffffffffffffffffffffff1681526020019081526020016000206000828254611fea9190614146565b925050819055506001600460008473ffffffffffffffffffffffffffffffffffffffff1673ffffffffffffffffffffffffffffffffffffffff168152602001908152602001600020600082825461204191906140bf565b92505081905550816003600083815260200190815260200160002060006101000a81548173ffffffffffffffffffffffffffffffffffffffff021916908373ffffffffffffffffffffffffffffffffffffffff160217905550808273ffffffffffffffffffffffffffffffffffffffff168473ffffffffffffffffffffffffffffffffffffffff167fddf252ad1be2c89b69c2b068fc378daa952ba7f163c4a11628f55a4df523b3ef60405160405180910390a4505050565b600061210582610ec8565b905061211381600084612ab0565b61211e600083611d07565b6001600460008373ffffffffffffffffffffffffffffffffffffffff1673ffffffffffffffffffffffffffffffffffffffff168152602001908152602001600020600082825461216e9190614146565b925050819055506003600083815260200190815260200160002060006101000a81549073ffffffffffffffffffffffffffffffffffffffff021916905581600073ffffffffffffffffffffffffffffffffffffffff168273ffffffffffffffffffffffffffffffffffffffff167fddf252ad1be2c89b69c2b068fc378daa952ba7f163c4a11628f55a4df523b3ef60405160405180910390a45050565b612213611cff565b73ffffffffffffffffffffffffffffffffffffffff166122316110ba565b73ffffffffffffffffffffffffffffffffffffffff1614612287576040517f08c379a000000000000000000000000000000000000000000000000000000000815260040161227e90613df9565b60405180910390fd5b6000600960008473ffffffffffffffffffffffffffffffffffffffff1673ffffffffffffffffffffffffffffffffffffffff16815260200190815260200160002090506000805b82805490508110156123a057838382815481106122ee576122ed6143f3565b5b9060005260206000209060030201600101541461238d57828181548110612318576123176143f3565b5b9060005260206000209060030201838381548110612339576123386143f3565b5b90600052602060002090600302016000820154816000015560018201548160010155600282018160020190805461236f9061425a565b61237a929190612fda565b509050508180612389906142bd565b9250505b8080612398906142bd565b9150506122ce565b50818054806123b2576123b16143c4565b5b600190038181906000526020600020906003020160008082016000905560018201600090556002820160006123e79190612e88565b5050905581600960008673ffffffffffffffffffffffffffffffffffffffff1673ffffffffffffffffffffffffffffffffffffffff168152602001908152602001600020908054612439929190612f4e565b5050505050565b60008060009054906101000a900473ffffffffffffffffffffffffffffffffffffffff169050816000806101000a81548173ffffffffffffffffffffffffffffffffffffffff021916908373ffffffffffffffffffffffffffffffffffffffff1602179055508173ffffffffffffffffffffffffffffffffffffffff168173ffffffffffffffffffffffffffffffffffffffff167f8be0079c531659141344cd1fd0a4f28419497f9722a3daafe3b4186f6b6457e060405160405180910390a35050565b61250f848484611e9e565b61251b84848484612ab5565b61255a576040517f08c379a000000000000000000000000000000000000000000000000000000000815260040161255190613c39565b60405180910390fd5b50505050565b600073ffffffffffffffffffffffffffffffffffffffff168273ffffffffffffffffffffffffffffffffffffffff1614156125d0576040517f08c379a00000000000000000000000000000000000000000000000000000000081526004016125c790613cb9565b60405180910390fd5b6125d981610ec8565b73ffffffffffffffffffffffffffffffffffffffff168273ffffffffffffffffffffffffffffffffffffffff1614612646576040517f08c379a000000000000000000000000000000000000000000000000000000000815260040161263d90613c19565b60405180910390fd5b6000600960008573ffffffffffffffffffffffffffffffffffffffff1673ffffffffffffffffffffffffffffffffffffffff16815260200190815260200160002090506000600960008573ffffffffffffffffffffffffffffffffffffffff1673ffffffffffffffffffffffffffffffffffffffff16815260200190815260200160002090506000805b838054905081101561282957848482815481106126f0576126ef6143f3565b5b906000526020600020906003020160010154141561278e578284828154811061271c5761271b6143f3565b5b906000526020600020906003020190806001815401808255809150506001900390600052602060002090600302016000909190919091506000820154816000015560018201548160010155600282018160020190805461277b9061425a565b612786929190612fda565b505050612816565b8381815481106127a1576127a06143f3565b5b90600052602060002090600302018483815481106127c2576127c16143f3565b5b9060005260206000209060030201600082015481600001556001820154816001015560028201816002019080546127f89061425a565b612803929190612fda565b509050508180612812906142bd565b9250505b8080612821906142bd565b9150506126d0565b508280548061283b5761283a6143c4565b5b600190038181906000526020600020906003020160008082016000905560018201600090556002820160006128709190612e88565b5050905581600960008773ffffffffffffffffffffffffffffffffffffffff1673ffffffffffffffffffffffffffffffffffffffff1681526020019081526020016000209080546128c2929190612f4e565b5082600960008873ffffffffffffffffffffffffffffffffffffffff1673ffffffffffffffffffffffffffffffffffffffff168152602001908152602001600020908054612911929190612f4e565b50505050505050565b606060405180602001604052806000815250905090565b60606000821415612979576040518060400160405280600181526020017f30000000000000000000000000000000000000000000000000000000000000008152509050612a8d565b600082905060005b600082146129ab578080612994906142bd565b915050600a826129a49190614115565b9150612981565b60008167ffffffffffffffff8111156129c7576129c6614422565b5b6040519080825280601f01601f1916602001820160405280156129f95781602001600182028036833780820191505090505b5090505b60008514612a8657600182612a129190614146565b9150600a85612a219190614306565b6030612a2d91906140bf565b60f81b818381518110612a4357612a426143f3565b5b60200101907effffffffffffffffffffffffffffffffffffffffffffffffffffffffffffff1916908160001a905350600a85612a7f9190614115565b94506129fd565b8093505050505b919050565b612aac828260405180602001604052806000815250612c4c565b5050565b505050565b6000612ad68473ffffffffffffffffffffffffffffffffffffffff16612ca7565b15612c3f578373ffffffffffffffffffffffffffffffffffffffff1663150b7a02612aff611cff565b8786866040518563ffffffff1660e01b8152600401612b219493929190613b4c565b602060405180830381600087803b158015612b3b57600080fd5b505af1925050508015612b6c57506040513d601f19601f82011682018060405250810190612b6991906133f4565b60015b612bef573d8060008114612b9c576040519150601f19603f3d011682016040523d82523d6000602084013e612ba1565b606091505b50600081511415612be7576040517f08c379a0000000000000000000000000000000000000000000000000000000008152600401612bde90613c39565b60405180910390fd5b805181602001fd5b63150b7a0260e01b7bffffffffffffffffffffffffffffffffffffffffffffffffffffffff1916817bffffffffffffffffffffffffffffffffffffffffffffffffffffffff191614915050612c44565b600190505b949350505050565b612c568383612cba565b612c636000848484612ab5565b612ca2576040517f08c379a0000000000000000000000000000000000000000000000000000000008152600401612c9990613c39565b60405180910390fd5b505050565b600080823b905060008111915050919050565b600073ffffffffffffffffffffffffffffffffffffffff168273ffffffffffffffffffffffffffffffffffffffff161415612d2a576040517f08c379a0000000000000000000000000000000000000000000000000000000008152600401612d2190613d99565b60405180910390fd5b612d3381611c93565b15612d73576040517f08c379a0000000000000000000000000000000000000000000000000000000008152600401612d6a90613c99565b60405180910390fd5b612d7f60008383612ab0565b6001600460008473ffffffffffffffffffffffffffffffffffffffff1673ffffffffffffffffffffffffffffffffffffffff1681526020019081526020016000206000828254612dcf91906140bf565b92505081905550816003600083815260200190815260200160002060006101000a81548173ffffffffffffffffffffffffffffffffffffffff021916908373ffffffffffffffffffffffffffffffffffffffff160217905550808273ffffffffffffffffffffffffffffffffffffffff16600073ffffffffffffffffffffffffffffffffffffffff167fddf252ad1be2c89b69c2b068fc378daa952ba7f163c4a11628f55a4df523b3ef60405160405180910390a45050565b508054612e949061425a565b6000825580601f10612ea65750612ec5565b601f016020900490600052602060002090810190612ec49190613067565b5b50565b828054612ed49061425a565b90600052602060002090601f016020900481019282612ef65760008555612f3d565b82601f10612f0f57805160ff1916838001178555612f3d565b82800160010185558215612f3d579182015b82811115612f3c578251825591602001919060010190612f21565b5b509050612f4a9190613067565b5090565b828054828255906000526020600020906003028101928215612fc95760005260206000209160030282015b82811115612fc857828260008201548160000155600182015481600101556002820181600201908054612fab9061425a565b612fb6929190612fda565b50505091600301919060030190612f79565b5b509050612fd69190613084565b5090565b828054612fe69061425a565b90600052602060002090601f0160209004810192826130085760008555613056565b82601f106130195780548555613056565b8280016001018555821561305657600052602060002091601f016020900482015b8281111561305557825482559160010191906001019061303a565b5b5090506130639190613067565b5090565b5b80821115613080576000816000905550600101613068565b5090565b5b808211156130b75760008082016000905560018201600090556002820160006130ae9190612e88565b50600301613085565b5090565b60006130ce6130c984613f97565b613f72565b9050828152602081018484840111156130ea576130e9614456565b5b6130f58482856141ee565b509392505050565b600061311061310b84613fc8565b613f72565b90508281526020810184848401111561312c5761312b614456565b5b6131378482856141ee565b509392505050565b60008135905061314e81614a62565b92915050565b60008135905061316381614a79565b92915050565b60008135905061317881614a90565b92915050565b60008151905061318d81614a90565b92915050565b600082601f8301126131a8576131a7614451565b5b81356131b88482602086016130bb565b91505092915050565b600082601f8301126131d6576131d5614451565b5b81356131e68482602086016130fd565b91505092915050565b6000813590506131fe81614aa7565b92915050565b60006020828403121561321a57613219614460565b5b60006132288482850161313f565b91505092915050565b6000806040838503121561324857613247614460565b5b60006132568582860161313f565b92505060206132678582860161313f565b9150509250929050565b60008060006060848603121561328a57613289614460565b5b60006132988682870161313f565b93505060206132a98682870161313f565b92505060406132ba868287016131ef565b9150509250925092565b600080600080608085870312156132de576132dd614460565b5b60006132ec8782880161313f565b94505060206132fd8782880161313f565b935050604061330e878288016131ef565b925050606085013567ffffffffffffffff81111561332f5761332e61445b565b5b61333b87828801613193565b91505092959194509250565b6000806040838503121561335e5761335d614460565b5b600061336c8582860161313f565b925050602061337d85828601613154565b9150509250929050565b6000806040838503121561339e5761339d614460565b5b60006133ac8582860161313f565b92505060206133bd858286016131ef565b9150509250929050565b6000602082840312156133dd576133dc614460565b5b60006133eb84828501613169565b91505092915050565b60006020828403121561340a57613409614460565b5b60006134188482850161317e565b91505092915050565b60006020828403121561343757613436614460565b5b600082013567ffffffffffffffff8111156134555761345461445b565b5b613461848285016131c1565b91505092915050565b6000602082840312156134805761347f614460565b5b600061348e848285016131ef565b91505092915050565b600080604083850312156134ae576134ad614460565b5b60006134bc858286016131ef565b92505060206134cd858286016131ef565b9150509250929050565b60006134e38383613a2b565b905092915050565b60006134f78383613a7b565b905092915050565b6135088161417a565b82525050565b600061351982614019565b613523818561405f565b93508360208202850161353585613ff9565b8060005b85811015613571578484038952815161355285826134d7565b945061355d83614045565b925060208a01995050600181019050613539565b50829750879550505050505092915050565b600061358e82614024565b6135988185614070565b9350836020820285016135aa85614009565b8060005b858110156135e657848403895281516135c785826134eb565b94506135d283614052565b925060208a019950506001810190506135ae565b50829750879550505050505092915050565b6136018161418c565b82525050565b60006136128261402f565b61361c8185614081565b935061362c8185602086016141fd565b61363581614465565b840191505092915050565b600061364b8261403a565b6136558185614092565b93506136658185602086016141fd565b61366e81614465565b840191505092915050565b60006136848261403a565b61368e81856140a3565b935061369e8185602086016141fd565b6136a781614465565b840191505092915050565b60006136bd8261403a565b6136c781856140b4565b93506136d78185602086016141fd565b80840191505092915050565b60006136f06031836140a3565b91506136fb82614476565b604082019050919050565b60006137136032836140a3565b915061371e826144c5565b604082019050919050565b6000613736601a836140a3565b915061374182614514565b602082019050919050565b60006137596026836140a3565b91506137648261453d565b604082019050919050565b600061377c601c836140a3565b91506137878261458c565b602082019050919050565b600061379f6020836140a3565b91506137aa826145b5565b602082019050919050565b60006137c26024836140a3565b91506137cd826145de565b604082019050919050565b60006137e56019836140a3565b91506137f08261462d565b602082019050919050565b6000613808602c836140a3565b915061381382614656565b604082019050919050565b600061382b6038836140a3565b9150613836826146a5565b604082019050919050565b600061384e602a836140a3565b9150613859826146f4565b604082019050919050565b60006138716029836140a3565b915061387c82614743565b604082019050919050565b60006138946020836140a3565b915061389f82614792565b602082019050919050565b60006138b7602c836140a3565b91506138c2826147bb565b604082019050919050565b60006138da600f836140a3565b91506138e58261480a565b602082019050919050565b60006138fd6020836140a3565b915061390882614833565b602082019050919050565b60006139206029836140a3565b915061392b8261485c565b604082019050919050565b6000613943600a836140a3565b915061394e826148ab565b602082019050919050565b6000613966602f836140a3565b9150613971826148d4565b604082019050919050565b60006139896021836140a3565b915061399482614923565b604082019050919050565b60006139ac601a836140a3565b91506139b782614972565b602082019050919050565b60006139cf6017836140a3565b91506139da8261499b565b602082019050919050565b60006139f26031836140a3565b91506139fd826149c4565b604082019050919050565b6000613a156023836140a3565b9150613a2082614a13565b604082019050919050565b6000606083016000830151613a436000860182613ab8565b506020830151613a566020860182613ab8565b5060408301518482036040860152613a6e8282613640565b9150508091505092915050565b6000604083016000830151613a936000860182613ab8565b5060208301518482036020860152613aab8282613640565b9150508091505092915050565b613ac1816141e4565b82525050565b613ad0816141e4565b82525050565b6000613ae282856136b2565b9150613aee82846136b2565b91508190509392505050565b6000602082019050613b0f60008301846134ff565b92915050565b6000606082019050613b2a60008301866134ff565b613b3760208301856134ff565b613b446040830184613ac7565b949350505050565b6000608082019050613b6160008301876134ff565b613b6e60208301866134ff565b613b7b6040830185613ac7565b8181036060830152613b8d8184613607565b905095945050505050565b60006020820190508181036000830152613bb2818461350e565b905092915050565b60006020820190508181036000830152613bd48184613583565b905092915050565b6000602082019050613bf160008301846135f8565b92915050565b60006020820190508181036000830152613c118184613679565b905092915050565b60006020820190508181036000830152613c32816136e3565b9050919050565b60006020820190508181036000830152613c5281613706565b9050919050565b60006020820190508181036000830152613c7281613729565b9050919050565b60006020820190508181036000830152613c928161374c565b9050919050565b60006020820190508181036000830152613cb28161376f565b9050919050565b60006020820190508181036000830152613cd281613792565b9050919050565b60006020820190508181036000830152613cf2816137b5565b9050919050565b60006020820190508181036000830152613d12816137d8565b9050919050565b60006020820190508181036000830152613d32816137fb565b9050919050565b60006020820190508181036000830152613d528161381e565b9050919050565b60006020820190508181036000830152613d7281613841565b9050919050565b60006020820190508181036000830152613d9281613864565b9050919050565b60006020820190508181036000830152613db281613887565b9050919050565b60006020820190508181036000830152613dd2816138aa565b9050919050565b60006020820190508181036000830152613df2816138cd565b9050919050565b60006020820190508181036000830152613e12816138f0565b9050919050565b60006020820190508181036000830152613e3281613913565b9050919050565b60006020820190508181036000830152613e5281613936565b9050919050565b60006020820190508181036000830152613e7281613959565b9050919050565b60006020820190508181036000830152613e928161397c565b9050919050565b60006020820190508181036000830152613eb28161399f565b9050919050565b60006020820190508181036000830152613ed2816139c2565b9050919050565b60006020820190508181036000830152613ef2816139e5565b9050919050565b60006020820190508181036000830152613f1281613a08565b9050919050565b6000602082019050613f2e6000830184613ac7565b92915050565b6000606082019050613f496000830186613ac7565b613f566020830185613ac7565b8181036040830152613f688184613679565b9050949350505050565b6000613f7c613f8d565b9050613f88828261428c565b919050565b6000604051905090565b600067ffffffffffffffff821115613fb257613fb1614422565b5b613fbb82614465565b9050602081019050919050565b600067ffffffffffffffff821115613fe357613fe2614422565b5b613fec82614465565b9050602081019050919050565b6000819050602082019050919050565b6000819050602082019050919050565b600081519050919050565b600081519050919050565b600081519050919050565b600081519050919050565b6000602082019050919050565b6000602082019050919050565b600082825260208201905092915050565b600082825260208201905092915050565b600082825260208201905092915050565b600082825260208201905092915050565b600082825260208201905092915050565b600081905092915050565b60006140ca826141e4565b91506140d5836141e4565b9250827fffffffffffffffffffffffffffffffffffffffffffffffffffffffffffffffff0382111561410a57614109614337565b5b828201905092915050565b6000614120826141e4565b915061412b836141e4565b92508261413b5761413a614366565b5b828204905092915050565b6000614151826141e4565b915061415c836141e4565b92508282101561416f5761416e614337565b5b828203905092915050565b6000614185826141c4565b9050919050565b60008115159050919050565b60007fffffffff0000000000000000000000000000000000000000000000000000000082169050919050565b600073ffffffffffffffffffffffffffffffffffffffff82169050919050565b6000819050919050565b82818337600083830152505050565b60005b8381101561421b578082015181840152602081019050614200565b8381111561422a576000848401525b50505050565b600061423b826141e4565b9150600082141561424f5761424e614337565b5b600182039050919050565b6000600282049050600182168061427257607f821691505b6020821081141561428657614285614395565b5b50919050565b61429582614465565b810181811067ffffffffffffffff821117156142b4576142b3614422565b5b80604052505050565b60006142c8826141e4565b91507fffffffffffffffffffffffffffffffffffffffffffffffffffffffffffffffff8214156142fb576142fa614337565b5b600182019050919050565b6000614311826141e4565b915061431c836141e4565b92508261432c5761432b614366565b5b828206905092915050565b7f4e487b7100000000000000000000000000000000000000000000000000000000600052601160045260246000fd5b7f4e487b7100000000000000000000000000000000000000000000000000000000600052601260045260246000fd5b7f4e487b7100000000000000000000000000000000000000000000000000000000600052602260045260246000fd5b7f4e487b7100000000000000000000000000000000000000000000000000000000600052603160045260246000fd5b7f4e487b7100000000000000000000000000000000000000000000000000000000600052603260045260246000fd5b7f4e487b7100000000000000000000000000000000000000000000000000000000600052604160045260246000fd5b600080fd5b600080fd5b600080fd5b600080fd5b6000601f19601f8301169050919050565b7f4f6e6c7920546f6b656e206f776e65722063616e207472616e73666572206f7760008201527f6e6572736869702074686520746f6b656e000000000000000000000000000000602082015250565b7f4552433732313a207472616e7366657220746f206e6f6e20455243373231526560008201527f63656976657220696d706c656d656e7465720000000000000000000000000000602082015250565b7f5468697320746f6b656e206973206e6f7420666f722073616c65000000000000600082015250565b7f4f776e61626c653a206e6577206f776e657220697320746865207a65726f206160008201527f6464726573730000000000000000000000000000000000000000000000000000602082015250565b7f4552433732313a20746f6b656e20616c7265616479206d696e74656400000000600082015250565b7f43616e6e6f74207472616e73666572206f776e65727368697020746f20307830600082015250565b7f4552433732313a207472616e7366657220746f20746865207a65726f2061646460008201527f7265737300000000000000000000000000000000000000000000000000000000602082015250565b7f4552433732313a20617070726f766520746f2063616c6c657200000000000000600082015250565b7f4552433732313a206f70657261746f7220717565727920666f72206e6f6e657860008201527f697374656e7420746f6b656e0000000000000000000000000000000000000000602082015250565b7f4552433732313a20617070726f76652063616c6c6572206973206e6f74206f7760008201527f6e6572206e6f7220617070726f76656420666f7220616c6c0000000000000000602082015250565b7f4552433732313a2062616c616e636520717565727920666f7220746865207a6560008201527f726f206164647265737300000000000000000000000000000000000000000000602082015250565b7f4552433732313a206f776e657220717565727920666f72206e6f6e657869737460008201527f656e7420746f6b656e0000000000000000000000000000000000000000000000602082015250565b7f4552433732313a206d696e7420746f20746865207a65726f2061646472657373600082015250565b7f4552433732313a20617070726f76656420717565727920666f72206e6f6e657860008201527f697374656e7420746f6b656e0000000000000000000000000000000000000000602082015250565b7f496e636f72726563742076616c75650000000000000000000000000000000000600082015250565b7f4f776e61626c653a2063616c6c6572206973206e6f7420746865206f776e6572600082015250565b7f4552433732313a207472616e73666572206f6620746f6b656e2074686174206960008201527f73206e6f74206f776e0000000000000000000000000000000000000000000000602082015250565b7f5072696365207a65726f00000000000000000000000000000000000000000000600082015250565b7f4552433732314d657461646174613a2055524920717565727920666f72206e6f60008201527f6e6578697374656e7420746f6b656e0000000000000000000000000000000000602082015250565b7f4552433732313a20617070726f76616c20746f2063757272656e74206f776e6560008201527f7200000000000000000000000000000000000000000000000000000000000000602082015250565b7f53656c6c65722063616e6e6f7420626520746865206275796572000000000000600082015250565b7f4e6f74206f776e6572206f66207468697320746f6b656e000000000000000000600082015250565b7f4552433732313a207472616e736665722063616c6c6572206973206e6f74206f60008201527f776e6572206e6f7220617070726f766564000000000000000000000000000000602082015250565b7f4f6e6c7920546f6b656e206f776e65722063616e206275726e2074686520746f60008201527f6b656e0000000000000000000000000000000000000000000000000000000000602082015250565b614a6b8161417a565b8114614a7657600080fd5b50565b614a828161418c565b8114614a8d57600080fd5b50565b614a9981614198565b8114614aa457600080fd5b50565b614ab0816141e4565b8114614abb57600080fd5b5056fea26469706673582212206621a65c981c383647f394a976bee8966375b2be43db65036dea97a98c4adf6164736f6c63430008070033",
  "immutableReferences": {},
  "source": "//SPDX-License-Identifier: UNLICENSED\n\npragma solidity >0.8.4;\n\nimport \"@openzeppelin/contracts/access/Ownable.sol\";\nimport \"@openzeppelin/contracts/token/ERC721/ERC721.sol\";\nimport \"@openzeppelin/contracts/utils/Strings.sol\";\n\ncontract VolcanoToken is Ownable, ERC721(\"Token NFT Christian Mora\", \"VTCM\") {\n    uint256 public tokenId = 1;\n    uint256 public marketCap = 0;\n\n    mapping(address => Metadata[]) public ownership;\n    mapping(uint256 => uint256) public tokenIdToPrice;\n    mapping(uint8 => VisualToken[]) listTokensCirculating; //Only used for visual porpuses\n\n    event NftBought(address _seller, address _buyer, uint256 _price);\n\n    struct Metadata {\n        uint256 timestamp;\n        uint256 tokenId;\n        string tokenURI;\n    }\n\n    struct VisualToken {\n        uint256 tokenId;\n        string tokenURL;\n    }\n\n    function getOwnership(address _user)\n        public\n        view\n        returns (Metadata[] memory)\n    {\n        return ownership[_user];\n    }\n\n    function mint(string memory uri) public {\n        _safeMint(_msgSender(), tokenId);\n        Metadata[] storage tokens = ownership[_msgSender()];\n        tokens.push(\n            Metadata({\n                timestamp: block.timestamp,\n                tokenId: tokenId,\n                tokenURI: uri\n            })\n        );\n        ownership[_msgSender()] = tokens;\n        marketCap++;\n        listTokensCirculating[0].push(VisualToken(tokenId, uri));\n        tokenId++;\n    }\n\n    function burn(uint256 _tokenId) public onlyOwner {\n        require(\n            _msgSender() == ERC721.ownerOf(_tokenId),\n            \"Only Token owner can burn the token\"\n        );\n        _burn(_tokenId);\n        _remove(_msgSender(), _tokenId);\n        marketCap--;\n        for (uint256 i = 0; i < listTokensCirculating[0].length; i++) {\n            if (listTokensCirculating[0][i].tokenId == _tokenId) {\n                delete listTokensCirculating[0][i];\n\t\t\t\tbreak;\n            }\n        }\n    }\n\n\tfunction getListTokensCirculating() public view returns (VisualToken[] memory){\n\t\treturn listTokensCirculating[0];\n\t}\n\n    function _remove(address _owner, uint256 _tokenId) internal onlyOwner {\n        Metadata[] storage array = ownership[_owner];\n        uint256 j = 0;\n        for (uint256 i = 0; i < array.length; i++) {\n            if (array[i].tokenId != _tokenId) {\n                array[j] = array[i];\n                j++;\n            }\n        }\n        array.pop();\n        ownership[_owner] = array;\n    }\n\n    function transfer(\n        address _from,\n        address _to,\n        uint256 _tokenId\n    ) public {\n        require(\n            _from == ERC721.ownerOf(_tokenId),\n            \"Only Token owner can transfer ownership the token\"\n        );\n\n        safeTransferFrom(_from, _to, _tokenId);\n        _transferOwnership(_from, _to, _tokenId);\n    }\n\n    function _transferOwnership(\n        address _from,\n        address _to,\n        uint256 _tokenId\n    ) internal {\n        require(_to != address(0), \"Cannot transfer ownership to 0x0\");\n        require(\n            _to == ERC721.ownerOf(_tokenId),\n            \"Only Token owner can transfer ownership the token\"\n        );\n        Metadata[] storage arrayFrom = ownership[_from];\n        Metadata[] storage arrayTo = ownership[_to];\n        uint256 j = 0;\n        for (uint256 i = 0; i < arrayFrom.length; i++) {\n            if (arrayFrom[i].tokenId == _tokenId) {\n                arrayTo.push(arrayFrom[i]);\n            } else {\n                arrayFrom[j] = arrayFrom[i];\n                j++;\n            }\n        }\n        arrayFrom.pop();\n        ownership[_to] = arrayTo;\n        ownership[_from] = arrayFrom;\n    }\n\n    function allowBuy(uint256 _tokenId, uint256 _price) external {\n        require(\n            _msgSender() == ERC721.ownerOf(_tokenId),\n            \"Not owner of this token\"\n        );\n        require(_price > 0, \"Price zero\");\n        tokenIdToPrice[_tokenId] = _price;\n    }\n\n    function disallowBuy(uint256 _tokenId) external {\n        require(_msgSender() == ownerOf(_tokenId), \"Not owner of this token\");\n        tokenIdToPrice[_tokenId] = 0;\n    }\n\n    function buy(uint256 _tokenId) external payable {\n        uint256 price = tokenIdToPrice[_tokenId];\n        require(price > 0, \"This token is not for sale\");\n        require(msg.value == price, \"Incorrect value\");\n        address buyer = _msgSender();\n        address seller = ownerOf(_tokenId);\n        require(buyer != seller, \"Seller cannot be the buyer\");\n        transfer(seller, buyer, _tokenId);\n        tokenIdToPrice[_tokenId] = 0; // not for sale anymore\n        payable(seller).transfer(msg.value); // send the ETH to the seller\n\n        emit NftBought(seller, buyer, msg.value);\n    }\n}\n",
  "sourcePath": "/opt/blockchain/dapp-nfts/contracts/VolcanoToken.sol",
  "compiler": {
    "name": "solc",
    "version": "0.8.7+commit.e28d00a7.Emscripten.clang"
  },
  "schemaVersion": "3.4.3",
  "updatedAt": "2021-09-22T01:37:43.518Z",
  "networkType": "ethereum",
  "devdoc": {
    "kind": "dev",
    "methods": {
      "approve(address,uint256)": {
        "details": "See {IERC721-approve}."
      },
      "balanceOf(address)": {
        "details": "See {IERC721-balanceOf}."
      },
      "getApproved(uint256)": {
        "details": "See {IERC721-getApproved}."
      },
      "isApprovedForAll(address,address)": {
        "details": "See {IERC721-isApprovedForAll}."
      },
      "name()": {
        "details": "See {IERC721Metadata-name}."
      },
      "owner()": {
        "details": "Returns the address of the current owner."
      },
      "ownerOf(uint256)": {
        "details": "See {IERC721-ownerOf}."
      },
      "renounceOwnership()": {
        "details": "Leaves the contract without owner. It will not be possible to call `onlyOwner` functions anymore. Can only be called by the current owner. NOTE: Renouncing ownership will leave the contract without an owner, thereby removing any functionality that is only available to the owner."
      },
      "safeTransferFrom(address,address,uint256)": {
        "details": "See {IERC721-safeTransferFrom}."
      },
      "safeTransferFrom(address,address,uint256,bytes)": {
        "details": "See {IERC721-safeTransferFrom}."
      },
      "setApprovalForAll(address,bool)": {
        "details": "See {IERC721-setApprovalForAll}."
      },
      "supportsInterface(bytes4)": {
        "details": "See {IERC165-supportsInterface}."
      },
      "symbol()": {
        "details": "See {IERC721Metadata-symbol}."
      },
      "tokenURI(uint256)": {
        "details": "See {IERC721Metadata-tokenURI}."
      },
      "transferFrom(address,address,uint256)": {
        "details": "See {IERC721-transferFrom}."
      },
      "transferOwnership(address)": {
        "details": "Transfers ownership of the contract to a new account (`newOwner`). Can only be called by the current owner."
      }
    },
    "version": 1
  },
  "userdoc": {
    "kind": "user",
    "methods": {},
    "version": 1
  }
}