{
  "contractName": "VolcanoToken",
  "abi": [
    {
      "anonymous": false,
      "inputs": [
        {
          "indexed": true,
          "internalType": "address",
          "name": "owner",
          "type": "address"
        },
        {
          "indexed": true,
          "internalType": "address",
          "name": "approved",
          "type": "address"
        },
        {
          "indexed": true,
          "internalType": "uint256",
          "name": "tokenId",
          "type": "uint256"
        }
      ],
      "name": "Approval",
      "type": "event"
    },
    {
      "anonymous": false,
      "inputs": [
        {
          "indexed": true,
          "internalType": "address",
          "name": "owner",
          "type": "address"
        },
        {
          "indexed": true,
          "internalType": "address",
          "name": "operator",
          "type": "address"
        },
        {
          "indexed": false,
          "internalType": "bool",
          "name": "approved",
          "type": "bool"
        }
      ],
      "name": "ApprovalForAll",
      "type": "event"
    },
    {
      "anonymous": false,
      "inputs": [
        {
          "indexed": false,
          "internalType": "address",
          "name": "_seller",
          "type": "address"
        },
        {
          "indexed": false,
          "internalType": "address",
          "name": "_buyer",
          "type": "address"
        },
        {
          "indexed": false,
          "internalType": "uint256",
          "name": "_price",
          "type": "uint256"
        }
      ],
      "name": "NftBought",
      "type": "event"
    },
    {
      "anonymous": false,
      "inputs": [
        {
          "indexed": false,
          "internalType": "address",
          "name": "_owner",
          "type": "address"
        },
        {
          "indexed": false,
          "internalType": "uint256",
          "name": "_tokenId",
          "type": "uint256"
        }
      ],
      "name": "NftMinted",
      "type": "event"
    },
    {
      "anonymous": false,
      "inputs": [
        {
          "indexed": true,
          "internalType": "address",
          "name": "previousOwner",
          "type": "address"
        },
        {
          "indexed": true,
          "internalType": "address",
          "name": "newOwner",
          "type": "address"
        }
      ],
      "name": "OwnershipTransferred",
      "type": "event"
    },
    {
      "anonymous": false,
      "inputs": [
        {
          "indexed": true,
          "internalType": "address",
          "name": "from",
          "type": "address"
        },
        {
          "indexed": true,
          "internalType": "address",
          "name": "to",
          "type": "address"
        },
        {
          "indexed": true,
          "internalType": "uint256",
          "name": "tokenId",
          "type": "uint256"
        }
      ],
      "name": "Transfer",
      "type": "event"
    },
    {
      "inputs": [
        {
          "internalType": "address",
          "name": "to",
          "type": "address"
        },
        {
          "internalType": "uint256",
          "name": "tokenId",
          "type": "uint256"
        }
      ],
      "name": "approve",
      "outputs": [],
      "stateMutability": "nonpayable",
      "type": "function"
    },
    {
      "inputs": [
        {
          "internalType": "address",
          "name": "owner",
          "type": "address"
        }
      ],
      "name": "balanceOf",
      "outputs": [
        {
          "internalType": "uint256",
          "name": "",
          "type": "uint256"
        }
      ],
      "stateMutability": "view",
      "type": "function",
      "constant": true
    },
    {
      "inputs": [
        {
          "internalType": "uint256",
          "name": "tokenId",
          "type": "uint256"
        }
      ],
      "name": "getApproved",
      "outputs": [
        {
          "internalType": "address",
          "name": "",
          "type": "address"
        }
      ],
      "stateMutability": "view",
      "type": "function",
      "constant": true
    },
    {
      "inputs": [
        {
          "internalType": "address",
          "name": "owner",
          "type": "address"
        },
        {
          "internalType": "address",
          "name": "operator",
          "type": "address"
        }
      ],
      "name": "isApprovedForAll",
      "outputs": [
        {
          "internalType": "bool",
          "name": "",
          "type": "bool"
        }
      ],
      "stateMutability": "view",
      "type": "function",
      "constant": true
    },
    {
      "inputs": [],
      "name": "marketCap",
      "outputs": [
        {
          "internalType": "uint256",
          "name": "",
          "type": "uint256"
        }
      ],
      "stateMutability": "view",
      "type": "function",
      "constant": true
    },
    {
      "inputs": [],
      "name": "name",
      "outputs": [
        {
          "internalType": "string",
          "name": "",
          "type": "string"
        }
      ],
      "stateMutability": "view",
      "type": "function",
      "constant": true
    },
    {
      "inputs": [],
      "name": "owner",
      "outputs": [
        {
          "internalType": "address",
          "name": "",
          "type": "address"
        }
      ],
      "stateMutability": "view",
      "type": "function",
      "constant": true
    },
    {
      "inputs": [
        {
          "internalType": "uint256",
          "name": "tokenId",
          "type": "uint256"
        }
      ],
      "name": "ownerOf",
      "outputs": [
        {
          "internalType": "address",
          "name": "",
          "type": "address"
        }
      ],
      "stateMutability": "view",
      "type": "function",
      "constant": true
    },
    {
      "inputs": [
        {
          "internalType": "address",
          "name": "",
          "type": "address"
        },
        {
          "internalType": "uint256",
          "name": "",
          "type": "uint256"
        }
      ],
      "name": "ownership",
      "outputs": [
        {
          "internalType": "uint256",
          "name": "timestamp",
          "type": "uint256"
        },
        {
          "internalType": "uint256",
          "name": "tokenId",
          "type": "uint256"
        },
        {
          "internalType": "string",
          "name": "tokenURI",
          "type": "string"
        }
      ],
      "stateMutability": "view",
      "type": "function",
      "constant": true
    },
    {
      "inputs": [],
      "name": "renounceOwnership",
      "outputs": [],
      "stateMutability": "nonpayable",
      "type": "function"
    },
    {
      "inputs": [
        {
          "internalType": "address",
          "name": "from",
          "type": "address"
        },
        {
          "internalType": "address",
          "name": "to",
          "type": "address"
        },
        {
          "internalType": "uint256",
          "name": "tokenId",
          "type": "uint256"
        }
      ],
      "name": "safeTransferFrom",
      "outputs": [],
      "stateMutability": "nonpayable",
      "type": "function"
    },
    {
      "inputs": [
        {
          "internalType": "address",
          "name": "from",
          "type": "address"
        },
        {
          "internalType": "address",
          "name": "to",
          "type": "address"
        },
        {
          "internalType": "uint256",
          "name": "tokenId",
          "type": "uint256"
        },
        {
          "internalType": "bytes",
          "name": "_data",
          "type": "bytes"
        }
      ],
      "name": "safeTransferFrom",
      "outputs": [],
      "stateMutability": "nonpayable",
      "type": "function"
    },
    {
      "inputs": [
        {
          "internalType": "address",
          "name": "operator",
          "type": "address"
        },
        {
          "internalType": "bool",
          "name": "approved",
          "type": "bool"
        }
      ],
      "name": "setApprovalForAll",
      "outputs": [],
      "stateMutability": "nonpayable",
      "type": "function"
    },
    {
      "inputs": [
        {
          "internalType": "bytes4",
          "name": "interfaceId",
          "type": "bytes4"
        }
      ],
      "name": "supportsInterface",
      "outputs": [
        {
          "internalType": "bool",
          "name": "",
          "type": "bool"
        }
      ],
      "stateMutability": "view",
      "type": "function",
      "constant": true
    },
    {
      "inputs": [],
      "name": "symbol",
      "outputs": [
        {
          "internalType": "string",
          "name": "",
          "type": "string"
        }
      ],
      "stateMutability": "view",
      "type": "function",
      "constant": true
    },
    {
      "inputs": [],
      "name": "tokenId",
      "outputs": [
        {
          "internalType": "uint256",
          "name": "",
          "type": "uint256"
        }
      ],
      "stateMutability": "view",
      "type": "function",
      "constant": true
    },
    {
      "inputs": [
        {
          "internalType": "uint256",
          "name": "",
          "type": "uint256"
        }
      ],
      "name": "tokenIdToPrice",
      "outputs": [
        {
          "internalType": "uint256",
          "name": "",
          "type": "uint256"
        }
      ],
      "stateMutability": "view",
      "type": "function",
      "constant": true
    },
    {
      "inputs": [
        {
          "internalType": "uint256",
          "name": "tokenId",
          "type": "uint256"
        }
      ],
      "name": "tokenURI",
      "outputs": [
        {
          "internalType": "string",
          "name": "",
          "type": "string"
        }
      ],
      "stateMutability": "view",
      "type": "function",
      "constant": true
    },
    {
      "inputs": [
        {
          "internalType": "address",
          "name": "from",
          "type": "address"
        },
        {
          "internalType": "address",
          "name": "to",
          "type": "address"
        },
        {
          "internalType": "uint256",
          "name": "tokenId",
          "type": "uint256"
        }
      ],
      "name": "transferFrom",
      "outputs": [],
      "stateMutability": "nonpayable",
      "type": "function"
    },
    {
      "inputs": [
        {
          "internalType": "address",
          "name": "newOwner",
          "type": "address"
        }
      ],
      "name": "transferOwnership",
      "outputs": [],
      "stateMutability": "nonpayable",
      "type": "function"
    },
    {
      "inputs": [
        {
          "internalType": "address",
          "name": "_user",
          "type": "address"
        }
      ],
      "name": "getOwnership",
      "outputs": [
        {
          "components": [
            {
              "internalType": "uint256",
              "name": "timestamp",
              "type": "uint256"
            },
            {
              "internalType": "uint256",
              "name": "tokenId",
              "type": "uint256"
            },
            {
              "internalType": "string",
              "name": "tokenURI",
              "type": "string"
            }
          ],
          "internalType": "struct VolcanoToken.Metadata[]",
          "name": "",
          "type": "tuple[]"
        }
      ],
      "stateMutability": "view",
      "type": "function",
      "constant": true
    },
    {
      "inputs": [
        {
          "internalType": "string",
          "name": "uri",
          "type": "string"
        }
      ],
      "name": "mint",
      "outputs": [],
      "stateMutability": "nonpayable",
      "type": "function"
    },
    {
      "inputs": [
        {
          "internalType": "uint256",
          "name": "_tokenId",
          "type": "uint256"
        }
      ],
      "name": "burn",
      "outputs": [],
      "stateMutability": "nonpayable",
      "type": "function"
    },
    {
      "inputs": [],
      "name": "getListTokensCirculating",
      "outputs": [
        {
          "components": [
            {
              "internalType": "uint256",
              "name": "tokenId",
              "type": "uint256"
            },
            {
              "internalType": "string",
              "name": "tokenURL",
              "type": "string"
            },
            {
              "internalType": "address",
              "name": "owner",
              "type": "address"
            }
          ],
          "internalType": "struct VolcanoToken.VisualToken[]",
          "name": "",
          "type": "tuple[]"
        }
      ],
      "stateMutability": "view",
      "type": "function",
      "constant": true
    },
    {
      "inputs": [
        {
          "internalType": "address",
          "name": "_from",
          "type": "address"
        },
        {
          "internalType": "address",
          "name": "_to",
          "type": "address"
        },
        {
          "internalType": "uint256",
          "name": "_tokenId",
          "type": "uint256"
        }
      ],
      "name": "transfer",
      "outputs": [],
      "stateMutability": "nonpayable",
      "type": "function"
    },
    {
      "inputs": [
        {
          "internalType": "uint256",
          "name": "_tokenId",
          "type": "uint256"
        },
        {
          "internalType": "uint256",
          "name": "_price",
          "type": "uint256"
        },
        {
          "internalType": "address",
          "name": "buyer",
          "type": "address"
        }
      ],
      "name": "allowBuy",
      "outputs": [],
      "stateMutability": "nonpayable",
      "type": "function"
    },
    {
      "inputs": [
        {
          "internalType": "uint256",
          "name": "_tokenId",
          "type": "uint256"
        }
      ],
      "name": "disallowBuy",
      "outputs": [],
      "stateMutability": "nonpayable",
      "type": "function"
    },
    {
      "inputs": [
        {
          "internalType": "uint256",
          "name": "_tokenId",
          "type": "uint256"
        }
      ],
      "name": "buy",
      "outputs": [],
      "stateMutability": "payable",
      "type": "function",
      "payable": true
    }
  ],
  "bytecode": "0x6080604052600160075560006008553480156200001b57600080fd5b506040518060400160405280601881526020017f546f6b656e204e46542043687269737469616e204d6f726100000000000000008152506040518060400160405280600481526020017f5654434d00000000000000000000000000000000000000000000000000000000815250620000a86200009c620000e260201b60201c565b620000ea60201b60201c565b8160019080519060200190620000c0929190620001ae565b508060029080519060200190620000d9929190620001ae565b505050620002c3565b600033905090565b60008060009054906101000a900473ffffffffffffffffffffffffffffffffffffffff169050816000806101000a81548173ffffffffffffffffffffffffffffffffffffffff021916908373ffffffffffffffffffffffffffffffffffffffff1602179055508173ffffffffffffffffffffffffffffffffffffffff168173ffffffffffffffffffffffffffffffffffffffff167f8be0079c531659141344cd1fd0a4f28419497f9722a3daafe3b4186f6b6457e060405160405180910390a35050565b828054620001bc906200028d565b90600052602060002090601f016020900481019282620001e057600085556200022c565b82601f10620001fb57805160ff19168380011785556200022c565b828001600101855582156200022c579182015b828111156200022b5782518255916020019190600101906200020e565b5b5090506200023b91906200023f565b5090565b5b808211156200025a57600081600090555060010162000240565b5090565b7f4e487b7100000000000000000000000000000000000000000000000000000000600052602260045260246000fd5b60006002820490506001821680620002a657607f821691505b60208210811415620002bd57620002bc6200025e565b5b50919050565b614cbe80620002d36000396000f3fe6080604052600436106101b75760003560e01c8063715018a6116100ec578063d49913121161008a578063e985e9c511610064578063e985e9c5146105f9578063ee9bfc8c14610636578063f2fde38b14610675578063f4812eb91461069e576101b7565b8063d49913121461058b578063d85d3d27146105b4578063d96a094a146105dd576101b7565b8063a22cb465116100c6578063a22cb465146104d3578063b88d4fde146104fc578063beabacc814610525578063c87b56dd1461054e576101b7565b8063715018a6146104665780638da5cb5b1461047d57806395d89b41146104a8576101b7565b80632b681a541161015957806342966c681161013357806342966c6814610398578063529a00c5146103c15780636352211e146103ec57806370a0823114610429576101b7565b80632b681a54146103075780632c135b931461034457806342842e0e1461036f576101b7565b8063095ea7b311610195578063095ea7b31461026157806317d70f7c1461028a57806323b872dd146102b5578063284b4b9f146102de576101b7565b806301ffc9a7146101bc57806306fdde03146101f9578063081812fc14610224575b600080fd5b3480156101c857600080fd5b506101e360048036038101906101de91906132ff565b6106db565b6040516101f09190613347565b60405180910390f35b34801561020557600080fd5b5061020e6107bd565b60405161021b91906133fb565b60405180910390f35b34801561023057600080fd5b5061024b60048036038101906102469190613453565b61084f565b60405161025891906134c1565b60405180910390f35b34801561026d57600080fd5b5061028860048036038101906102839190613508565b6108d4565b005b34801561029657600080fd5b5061029f6109ec565b6040516102ac9190613557565b60405180910390f35b3480156102c157600080fd5b506102dc60048036038101906102d79190613572565b6109f2565b005b3480156102ea57600080fd5b50610305600480360381019061030091906135c5565b610a52565b005b34801561031357600080fd5b5061032e60048036038101906103299190613618565b610b39565b60405161033b91906137b0565b60405180910390f35b34801561035057600080fd5b50610359610c7d565b6040516103669190613557565b60405180910390f35b34801561037b57600080fd5b5061039660048036038101906103919190613572565b610c83565b005b3480156103a457600080fd5b506103bf60048036038101906103ba9190613453565b610ca3565b005b3480156103cd57600080fd5b506103d6610ec7565b6040516103e391906138f3565b60405180910390f35b3480156103f857600080fd5b50610413600480360381019061040e9190613453565b61102c565b60405161042091906134c1565b60405180910390f35b34801561043557600080fd5b50610450600480360381019061044b9190613618565b6110de565b60405161045d9190613557565b60405180910390f35b34801561047257600080fd5b5061047b611196565b005b34801561048957600080fd5b5061049261121e565b60405161049f91906134c1565b60405180910390f35b3480156104b457600080fd5b506104bd611247565b6040516104ca91906133fb565b60405180910390f35b3480156104df57600080fd5b506104fa60048036038101906104f59190613941565b6112d9565b005b34801561050857600080fd5b50610523600480360381019061051e9190613ab6565b61145a565b005b34801561053157600080fd5b5061054c60048036038101906105479190613572565b6114bc565b005b34801561055a57600080fd5b5061057560048036038101906105709190613453565b61154d565b60405161058291906133fb565b60405180910390f35b34801561059757600080fd5b506105b260048036038101906105ad9190613453565b6115f4565b005b3480156105c057600080fd5b506105db60048036038101906105d69190613bda565b61168d565b005b6105f760048036038101906105f29190613453565b611919565b005b34801561060557600080fd5b50610620600480360381019061061b9190613c23565b611aa8565b60405161062d9190613347565b60405180910390f35b34801561064257600080fd5b5061065d60048036038101906106589190613508565b611b3c565b60405161066c93929190613c63565b60405180910390f35b34801561068157600080fd5b5061069c60048036038101906106979190613618565b611c0b565b005b3480156106aa57600080fd5b506106c560048036038101906106c09190613453565b611d03565b6040516106d29190613557565b60405180910390f35b60007f80ac58cd000000000000000000000000000000000000000000000000000000007bffffffffffffffffffffffffffffffffffffffffffffffffffffffff1916827bffffffffffffffffffffffffffffffffffffffffffffffffffffffff191614806107a657507f5b5e139f000000000000000000000000000000000000000000000000000000007bffffffffffffffffffffffffffffffffffffffffffffffffffffffff1916827bffffffffffffffffffffffffffffffffffffffffffffffffffffffff1916145b806107b657506107b582611d1b565b5b9050919050565b6060600180546107cc90613cd0565b80601f01602080910402602001604051908101604052809291908181526020018280546107f890613cd0565b80156108455780601f1061081a57610100808354040283529160200191610845565b820191906000526020600020905b81548152906001019060200180831161082857829003601f168201915b5050505050905090565b600061085a82611d85565b610899576040517f08c379a000000000000000000000000000000000000000000000000000000000815260040161089090613d74565b60405180910390fd5b6005600083815260200190815260200160002060009054906101000a900473ffffffffffffffffffffffffffffffffffffffff169050919050565b60006108df8261102c565b90508073ffffffffffffffffffffffffffffffffffffffff168373ffffffffffffffffffffffffffffffffffffffff161415610950576040517f08c379a000000000000000000000000000000000000000000000000000000000815260040161094790613e06565b60405180910390fd5b8073ffffffffffffffffffffffffffffffffffffffff1661096f611df1565b73ffffffffffffffffffffffffffffffffffffffff16148061099e575061099d81610998611df1565b611aa8565b5b6109dd576040517f08c379a00000000000000000000000000000000000000000000000000000000081526004016109d490613e98565b60405180910390fd5b6109e78383611df9565b505050565b60075481565b610a036109fd611df1565b82611eb2565b610a42576040517f08c379a0000000000000000000000000000000000000000000000000000000008152600401610a3990613f2a565b60405180910390fd5b610a4d838383611f90565b505050565b610a5b8361102c565b73ffffffffffffffffffffffffffffffffffffffff16610a79611df1565b73ffffffffffffffffffffffffffffffffffffffff1614610acf576040517f08c379a0000000000000000000000000000000000000000000000000000000008152600401610ac690613f96565b60405180910390fd5b60008211610b12576040517f08c379a0000000000000000000000000000000000000000000000000000000008152600401610b0990614002565b60405180910390fd5b81600a600085815260200190815260200160002081905550610b3481846108d4565b505050565b6060600960008373ffffffffffffffffffffffffffffffffffffffff1673ffffffffffffffffffffffffffffffffffffffff168152602001908152602001600020805480602002602001604051908101604052809291908181526020016000905b82821015610c7257838290600052602060002090600302016040518060600160405290816000820154815260200160018201548152602001600282018054610be190613cd0565b80601f0160208091040260200160405190810160405280929190818152602001828054610c0d90613cd0565b8015610c5a5780601f10610c2f57610100808354040283529160200191610c5a565b820191906000526020600020905b815481529060010190602001808311610c3d57829003601f168201915b50505050508152505081526020019060010190610b9a565b505050509050919050565b60085481565b610c9e8383836040518060200160405280600081525061145a565b505050565b610cab611df1565b73ffffffffffffffffffffffffffffffffffffffff16610cc961121e565b73ffffffffffffffffffffffffffffffffffffffff1614610d1f576040517f08c379a0000000000000000000000000000000000000000000000000000000008152600401610d169061406e565b60405180910390fd5b610d288161102c565b73ffffffffffffffffffffffffffffffffffffffff16610d46611df1565b73ffffffffffffffffffffffffffffffffffffffff1614610d9c576040517f08c379a0000000000000000000000000000000000000000000000000000000008152600401610d9390614100565b60405180910390fd5b610da5816121ec565b610db6610db0611df1565b826122fd565b60086000815480929190610dc99061414f565b919050555060005b600b60008060ff16815260200190815260200160002080549050811015610ec35781600b60008060ff1681526020019081526020016000208281548110610e1b57610e1a614179565b5b9060005260206000209060030201600001541415610eb057600b60008060ff1681526020019081526020016000208181548110610e5b57610e5a614179565b5b9060005260206000209060030201600080820160009055600182016000610e829190613060565b6002820160006101000a81549073ffffffffffffffffffffffffffffffffffffffff02191690555050610ec3565b8080610ebb906141a8565b915050610dd1565b5050565b6060600b60008060ff168152602001908152602001600020805480602002602001604051908101604052809291908181526020016000905b82821015611023578382906000526020600020906003020160405180606001604052908160008201548152602001600182018054610f3c90613cd0565b80601f0160208091040260200160405190810160405280929190818152602001828054610f6890613cd0565b8015610fb55780601f10610f8a57610100808354040283529160200191610fb5565b820191906000526020600020905b815481529060010190602001808311610f9857829003601f168201915b505050505081526020016002820160009054906101000a900473ffffffffffffffffffffffffffffffffffffffff1673ffffffffffffffffffffffffffffffffffffffff1673ffffffffffffffffffffffffffffffffffffffff168152505081526020019060010190610eff565b50505050905090565b6000806003600084815260200190815260200160002060009054906101000a900473ffffffffffffffffffffffffffffffffffffffff169050600073ffffffffffffffffffffffffffffffffffffffff168173ffffffffffffffffffffffffffffffffffffffff1614156110d5576040517f08c379a00000000000000000000000000000000000000000000000000000000081526004016110cc90614263565b60405180910390fd5b80915050919050565b60008073ffffffffffffffffffffffffffffffffffffffff168273ffffffffffffffffffffffffffffffffffffffff16141561114f576040517f08c379a0000000000000000000000000000000000000000000000000000000008152600401611146906142f5565b60405180910390fd5b600460008373ffffffffffffffffffffffffffffffffffffffff1673ffffffffffffffffffffffffffffffffffffffff168152602001908152602001600020549050919050565b61119e611df1565b73ffffffffffffffffffffffffffffffffffffffff166111bc61121e565b73ffffffffffffffffffffffffffffffffffffffff1614611212576040517f08c379a00000000000000000000000000000000000000000000000000000000081526004016112099061406e565b60405180910390fd5b61121c6000612532565b565b60008060009054906101000a900473ffffffffffffffffffffffffffffffffffffffff16905090565b60606002805461125690613cd0565b80601f016020809104026020016040519081016040528092919081815260200182805461128290613cd0565b80156112cf5780601f106112a4576101008083540402835291602001916112cf565b820191906000526020600020905b8154815290600101906020018083116112b257829003601f168201915b5050505050905090565b6112e1611df1565b73ffffffffffffffffffffffffffffffffffffffff168273ffffffffffffffffffffffffffffffffffffffff16141561134f576040517f08c379a000000000000000000000000000000000000000000000000000000000815260040161134690614361565b60405180910390fd5b806006600061135c611df1565b73ffffffffffffffffffffffffffffffffffffffff1673ffffffffffffffffffffffffffffffffffffffff16815260200190815260200160002060008473ffffffffffffffffffffffffffffffffffffffff1673ffffffffffffffffffffffffffffffffffffffff16815260200190815260200160002060006101000a81548160ff0219169083151502179055508173ffffffffffffffffffffffffffffffffffffffff16611409611df1565b73ffffffffffffffffffffffffffffffffffffffff167f17307eab39ab6107e8899845ad3d59bd9653f200f220920489ca2b5937696c318360405161144e9190613347565b60405180910390a35050565b61146b611465611df1565b83611eb2565b6114aa576040517f08c379a00000000000000000000000000000000000000000000000000000000081526004016114a190613f2a565b60405180910390fd5b6114b6848484846125f6565b50505050565b6114c58161102c565b73ffffffffffffffffffffffffffffffffffffffff168373ffffffffffffffffffffffffffffffffffffffff1614611532576040517f08c379a0000000000000000000000000000000000000000000000000000000008152600401611529906143f3565b60405180910390fd5b61153d838383610c83565b611548838383612652565b505050565b606061155882611d85565b611597576040517f08c379a000000000000000000000000000000000000000000000000000000000815260040161158e90614485565b60405180910390fd5b60006115a1612a16565b905060008151116115c157604051806020016040528060008152506115ec565b806115cb84612a2d565b6040516020016115dc9291906144e1565b6040516020818303038152906040525b915050919050565b6115fd8161102c565b73ffffffffffffffffffffffffffffffffffffffff1661161b611df1565b73ffffffffffffffffffffffffffffffffffffffff1614611671576040517f08c379a000000000000000000000000000000000000000000000000000000000815260040161166890613f96565b60405180910390fd5b6000600a60008381526020019081526020016000208190555050565b6116a0611698611df1565b600754612b8e565b6000600960006116ae611df1565b73ffffffffffffffffffffffffffffffffffffffff1673ffffffffffffffffffffffffffffffffffffffff16815260200190815260200160002090508060405180606001604052804281526020016007548152602001848152509080600181540180825580915050600190039060005260206000209060030201600090919091909150600082015181600001556020820151816001015560408201518160020190805190602001906117619291906130a0565b5050508060096000611771611df1565b73ffffffffffffffffffffffffffffffffffffffff1673ffffffffffffffffffffffffffffffffffffffff1681526020019081526020016000209080546117b9929190613126565b50600860008154809291906117cd906141a8565b9190505550600b60008060ff16815260200190815260200160002060405180606001604052806007548152602001848152602001611809611df1565b73ffffffffffffffffffffffffffffffffffffffff1681525090806001815401808255809150506001900390600052602060002090600302016000909190919091506000820151816000015560208201518160010190805190602001906118719291906130a0565b5060408201518160020160006101000a81548173ffffffffffffffffffffffffffffffffffffffff021916908373ffffffffffffffffffffffffffffffffffffffff16021790555050507ff2b290a76feb54be358b555507421d765609171aefa0646f109a653228ff81b86118e4611df1565b6007546040516118f5929190614505565b60405180910390a160076000815480929190611910906141a8565b91905055505050565b6000600a600083815260200190815260200160002054905060008111611974576040517f08c379a000000000000000000000000000000000000000000000000000000000815260040161196b9061457a565b60405180910390fd5b600061197e611df1565b9050600061198b8461102c565b90508073ffffffffffffffffffffffffffffffffffffffff168273ffffffffffffffffffffffffffffffffffffffff1614156119fc576040517f08c379a00000000000000000000000000000000000000000000000000000000081526004016119f3906145e6565b60405180910390fd5b611a078183866114bc565b6000600a6000868152602001908152602001600020819055508073ffffffffffffffffffffffffffffffffffffffff166108fc349081150290604051600060405180830381858888f19350505050158015611a66573d6000803e3d6000fd5b507f608f6ac9327c2bf4d3c77adf447d2c448ba7b0971e0aaa9aa03f7ac29d874a44818334604051611a9a93929190614606565b60405180910390a150505050565b6000600660008473ffffffffffffffffffffffffffffffffffffffff1673ffffffffffffffffffffffffffffffffffffffff16815260200190815260200160002060008373ffffffffffffffffffffffffffffffffffffffff1673ffffffffffffffffffffffffffffffffffffffff16815260200190815260200160002060009054906101000a900460ff16905092915050565b60096020528160005260406000208181548110611b5857600080fd5b906000526020600020906003020160009150915050806000015490806001015490806002018054611b8890613cd0565b80601f0160208091040260200160405190810160405280929190818152602001828054611bb490613cd0565b8015611c015780601f10611bd657610100808354040283529160200191611c01565b820191906000526020600020905b815481529060010190602001808311611be457829003601f168201915b5050505050905083565b611c13611df1565b73ffffffffffffffffffffffffffffffffffffffff16611c3161121e565b73ffffffffffffffffffffffffffffffffffffffff1614611c87576040517f08c379a0000000000000000000000000000000000000000000000000000000008152600401611c7e9061406e565b60405180910390fd5b600073ffffffffffffffffffffffffffffffffffffffff168173ffffffffffffffffffffffffffffffffffffffff161415611cf7576040517f08c379a0000000000000000000000000000000000000000000000000000000008152600401611cee906146af565b60405180910390fd5b611d0081612532565b50565b600a6020528060005260406000206000915090505481565b60007f01ffc9a7000000000000000000000000000000000000000000000000000000007bffffffffffffffffffffffffffffffffffffffffffffffffffffffff1916827bffffffffffffffffffffffffffffffffffffffffffffffffffffffff1916149050919050565b60008073ffffffffffffffffffffffffffffffffffffffff166003600084815260200190815260200160002060009054906101000a900473ffffffffffffffffffffffffffffffffffffffff1673ffffffffffffffffffffffffffffffffffffffff1614159050919050565b600033905090565b816005600083815260200190815260200160002060006101000a81548173ffffffffffffffffffffffffffffffffffffffff021916908373ffffffffffffffffffffffffffffffffffffffff160217905550808273ffffffffffffffffffffffffffffffffffffffff16611e6c8361102c565b73ffffffffffffffffffffffffffffffffffffffff167f8c5be1e5ebec7d5bd14f71427d1e84f3dd0314c0f7b2291e5b200ac8c7c3b92560405160405180910390a45050565b6000611ebd82611d85565b611efc576040517f08c379a0000000000000000000000000000000000000000000000000000000008152600401611ef390614741565b60405180910390fd5b6000611f078361102c565b90508073ffffffffffffffffffffffffffffffffffffffff168473ffffffffffffffffffffffffffffffffffffffff161480611f7657508373ffffffffffffffffffffffffffffffffffffffff16611f5e8461084f565b73ffffffffffffffffffffffffffffffffffffffff16145b80611f875750611f868185611aa8565b5b91505092915050565b8273ffffffffffffffffffffffffffffffffffffffff16611fb08261102c565b73ffffffffffffffffffffffffffffffffffffffff1614612006576040517f08c379a0000000000000000000000000000000000000000000000000000000008152600401611ffd906147d3565b60405180910390fd5b600073ffffffffffffffffffffffffffffffffffffffff168273ffffffffffffffffffffffffffffffffffffffff161415612076576040517f08c379a000000000000000000000000000000000000000000000000000000000815260040161206d90614865565b60405180910390fd5b612081838383612bac565b61208c600082611df9565b6001600460008573ffffffffffffffffffffffffffffffffffffffff1673ffffffffffffffffffffffffffffffffffffffff16815260200190815260200160002060008282546120dc9190614885565b925050819055506001600460008473ffffffffffffffffffffffffffffffffffffffff1673ffffffffffffffffffffffffffffffffffffffff168152602001908152602001600020600082825461213391906148b9565b92505081905550816003600083815260200190815260200160002060006101000a81548173ffffffffffffffffffffffffffffffffffffffff021916908373ffffffffffffffffffffffffffffffffffffffff160217905550808273ffffffffffffffffffffffffffffffffffffffff168473ffffffffffffffffffffffffffffffffffffffff167fddf252ad1be2c89b69c2b068fc378daa952ba7f163c4a11628f55a4df523b3ef60405160405180910390a4505050565b60006121f78261102c565b905061220581600084612bac565b612210600083611df9565b6001600460008373ffffffffffffffffffffffffffffffffffffffff1673ffffffffffffffffffffffffffffffffffffffff16815260200190815260200160002060008282546122609190614885565b925050819055506003600083815260200190815260200160002060006101000a81549073ffffffffffffffffffffffffffffffffffffffff021916905581600073ffffffffffffffffffffffffffffffffffffffff168273ffffffffffffffffffffffffffffffffffffffff167fddf252ad1be2c89b69c2b068fc378daa952ba7f163c4a11628f55a4df523b3ef60405160405180910390a45050565b612305611df1565b73ffffffffffffffffffffffffffffffffffffffff1661232361121e565b73ffffffffffffffffffffffffffffffffffffffff1614612379576040517f08c379a00000000000000000000000000000000000000000000000000000000081526004016123709061406e565b60405180910390fd5b6000600960008473ffffffffffffffffffffffffffffffffffffffff1673ffffffffffffffffffffffffffffffffffffffff16815260200190815260200160002090506000805b828054905081101561249257838382815481106123e0576123df614179565b5b9060005260206000209060030201600101541461247f5782818154811061240a57612409614179565b5b906000526020600020906003020183838154811061242b5761242a614179565b5b90600052602060002090600302016000820154816000015560018201548160010155600282018160020190805461246190613cd0565b61246c9291906131b2565b50905050818061247b906141a8565b9250505b808061248a906141a8565b9150506123c0565b50818054806124a4576124a361490f565b5b600190038181906000526020600020906003020160008082016000905560018201600090556002820160006124d99190613060565b5050905581600960008673ffffffffffffffffffffffffffffffffffffffff1673ffffffffffffffffffffffffffffffffffffffff16815260200190815260200160002090805461252b929190613126565b5050505050565b60008060009054906101000a900473ffffffffffffffffffffffffffffffffffffffff169050816000806101000a81548173ffffffffffffffffffffffffffffffffffffffff021916908373ffffffffffffffffffffffffffffffffffffffff1602179055508173ffffffffffffffffffffffffffffffffffffffff168173ffffffffffffffffffffffffffffffffffffffff167f8be0079c531659141344cd1fd0a4f28419497f9722a3daafe3b4186f6b6457e060405160405180910390a35050565b612601848484611f90565b61260d84848484612bb1565b61264c576040517f08c379a0000000000000000000000000000000000000000000000000000000008152600401612643906149b0565b60405180910390fd5b50505050565b600073ffffffffffffffffffffffffffffffffffffffff168273ffffffffffffffffffffffffffffffffffffffff1614156126c2576040517f08c379a00000000000000000000000000000000000000000000000000000000081526004016126b990614a1c565b60405180910390fd5b6126cb8161102c565b73ffffffffffffffffffffffffffffffffffffffff168273ffffffffffffffffffffffffffffffffffffffff1614612738576040517f08c379a000000000000000000000000000000000000000000000000000000000815260040161272f906143f3565b60405180910390fd5b6000600960008573ffffffffffffffffffffffffffffffffffffffff1673ffffffffffffffffffffffffffffffffffffffff16815260200190815260200160002090506000600960008573ffffffffffffffffffffffffffffffffffffffff1673ffffffffffffffffffffffffffffffffffffffff16815260200190815260200160002090506000805b838054905081101561291b57848482815481106127e2576127e1614179565b5b9060005260206000209060030201600101541415612880578284828154811061280e5761280d614179565b5b906000526020600020906003020190806001815401808255809150506001900390600052602060002090600302016000909190919091506000820154816000015560018201548160010155600282018160020190805461286d90613cd0565b6128789291906131b2565b505050612908565b83818154811061289357612892614179565b5b90600052602060002090600302018483815481106128b4576128b3614179565b5b9060005260206000209060030201600082015481600001556001820154816001015560028201816002019080546128ea90613cd0565b6128f59291906131b2565b509050508180612904906141a8565b9250505b8080612913906141a8565b9150506127c2565b508280548061292d5761292c61490f565b5b600190038181906000526020600020906003020160008082016000905560018201600090556002820160006129629190613060565b5050905581600960008773ffffffffffffffffffffffffffffffffffffffff1673ffffffffffffffffffffffffffffffffffffffff1681526020019081526020016000209080546129b4929190613126565b5082600960008873ffffffffffffffffffffffffffffffffffffffff1673ffffffffffffffffffffffffffffffffffffffff168152602001908152602001600020908054612a03929190613126565b50612a0e8486612d48565b505050505050565b606060405180602001604052806000815250905090565b60606000821415612a75576040518060400160405280600181526020017f30000000000000000000000000000000000000000000000000000000000000008152509050612b89565b600082905060005b60008214612aa7578080612a90906141a8565b915050600a82612aa09190614a6b565b9150612a7d565b60008167ffffffffffffffff811115612ac357612ac261398b565b5b6040519080825280601f01601f191660200182016040528015612af55781602001600182028036833780820191505090505b5090505b60008514612b8257600182612b0e9190614885565b9150600a85612b1d9190614a9c565b6030612b2991906148b9565b60f81b818381518110612b3f57612b3e614179565b5b60200101907effffffffffffffffffffffffffffffffffffffffffffffffffffffffffffff1916908160001a905350600a85612b7b9190614a6b565b9450612af9565b8093505050505b919050565b612ba8828260405180602001604052806000815250612e24565b5050565b505050565b6000612bd28473ffffffffffffffffffffffffffffffffffffffff16612e7f565b15612d3b578373ffffffffffffffffffffffffffffffffffffffff1663150b7a02612bfb611df1565b8786866040518563ffffffff1660e01b8152600401612c1d9493929190614b22565b602060405180830381600087803b158015612c3757600080fd5b505af1925050508015612c6857506040513d601f19601f82011682018060405250810190612c659190614b83565b60015b612ceb573d8060008114612c98576040519150601f19603f3d011682016040523d82523d6000602084013e612c9d565b606091505b50600081511415612ce3576040517f08c379a0000000000000000000000000000000000000000000000000000000008152600401612cda906149b0565b60405180910390fd5b805181602001fd5b63150b7a0260e01b7bffffffffffffffffffffffffffffffffffffffffffffffffffffffff1916817bffffffffffffffffffffffffffffffffffffffffffffffffffffffff191614915050612d40565b600190505b949350505050565b6000600b60008060ff168152602001908152602001600020905060005b8180549050811015612e1e5783828281548110612d8557612d84614179565b5b9060005260206000209060030201600001541415612e0b576000828281548110612db257612db1614179565b5b90600052602060002090600302019050838160020160006101000a81548173ffffffffffffffffffffffffffffffffffffffff021916908373ffffffffffffffffffffffffffffffffffffffff16021790555050612e1e565b8080612e16906141a8565b915050612d65565b50505050565b612e2e8383612e92565b612e3b6000848484612bb1565b612e7a576040517f08c379a0000000000000000000000000000000000000000000000000000000008152600401612e71906149b0565b60405180910390fd5b505050565b600080823b905060008111915050919050565b600073ffffffffffffffffffffffffffffffffffffffff168273ffffffffffffffffffffffffffffffffffffffff161415612f02576040517f08c379a0000000000000000000000000000000000000000000000000000000008152600401612ef990614bfc565b60405180910390fd5b612f0b81611d85565b15612f4b576040517f08c379a0000000000000000000000000000000000000000000000000000000008152600401612f4290614c68565b60405180910390fd5b612f5760008383612bac565b6001600460008473ffffffffffffffffffffffffffffffffffffffff1673ffffffffffffffffffffffffffffffffffffffff1681526020019081526020016000206000828254612fa791906148b9565b92505081905550816003600083815260200190815260200160002060006101000a81548173ffffffffffffffffffffffffffffffffffffffff021916908373ffffffffffffffffffffffffffffffffffffffff160217905550808273ffffffffffffffffffffffffffffffffffffffff16600073ffffffffffffffffffffffffffffffffffffffff167fddf252ad1be2c89b69c2b068fc378daa952ba7f163c4a11628f55a4df523b3ef60405160405180910390a45050565b50805461306c90613cd0565b6000825580601f1061307e575061309d565b601f01602090049060005260206000209081019061309c919061323f565b5b50565b8280546130ac90613cd0565b90600052602060002090601f0160209004810192826130ce5760008555613115565b82601f106130e757805160ff1916838001178555613115565b82800160010185558215613115579182015b828111156131145782518255916020019190600101906130f9565b5b509050613122919061323f565b5090565b8280548282559060005260206000209060030281019282156131a15760005260206000209160030282015b828111156131a05782826000820154816000015560018201548160010155600282018160020190805461318390613cd0565b61318e9291906131b2565b50505091600301919060030190613151565b5b5090506131ae919061325c565b5090565b8280546131be90613cd0565b90600052602060002090601f0160209004810192826131e0576000855561322e565b82601f106131f1578054855561322e565b8280016001018555821561322e57600052602060002091601f016020900482015b8281111561322d578254825591600101919060010190613212565b5b50905061323b919061323f565b5090565b5b80821115613258576000816000905550600101613240565b5090565b5b8082111561328f5760008082016000905560018201600090556002820160006132869190613060565b5060030161325d565b5090565b6000604051905090565b600080fd5b600080fd5b60007fffffffff0000000000000000000000000000000000000000000000000000000082169050919050565b6132dc816132a7565b81146132e757600080fd5b50565b6000813590506132f9816132d3565b92915050565b6000602082840312156133155761331461329d565b5b6000613323848285016132ea565b91505092915050565b60008115159050919050565b6133418161332c565b82525050565b600060208201905061335c6000830184613338565b92915050565b600081519050919050565b600082825260208201905092915050565b60005b8381101561339c578082015181840152602081019050613381565b838111156133ab576000848401525b50505050565b6000601f19601f8301169050919050565b60006133cd82613362565b6133d7818561336d565b93506133e781856020860161337e565b6133f0816133b1565b840191505092915050565b6000602082019050818103600083015261341581846133c2565b905092915050565b6000819050919050565b6134308161341d565b811461343b57600080fd5b50565b60008135905061344d81613427565b92915050565b6000602082840312156134695761346861329d565b5b60006134778482850161343e565b91505092915050565b600073ffffffffffffffffffffffffffffffffffffffff82169050919050565b60006134ab82613480565b9050919050565b6134bb816134a0565b82525050565b60006020820190506134d660008301846134b2565b92915050565b6134e5816134a0565b81146134f057600080fd5b50565b600081359050613502816134dc565b92915050565b6000806040838503121561351f5761351e61329d565b5b600061352d858286016134f3565b925050602061353e8582860161343e565b9150509250929050565b6135518161341d565b82525050565b600060208201905061356c6000830184613548565b92915050565b60008060006060848603121561358b5761358a61329d565b5b6000613599868287016134f3565b93505060206135aa868287016134f3565b92505060406135bb8682870161343e565b9150509250925092565b6000806000606084860312156135de576135dd61329d565b5b60006135ec8682870161343e565b93505060206135fd8682870161343e565b925050604061360e868287016134f3565b9150509250925092565b60006020828403121561362e5761362d61329d565b5b600061363c848285016134f3565b91505092915050565b600081519050919050565b600082825260208201905092915050565b6000819050602082019050919050565b61367a8161341d565b82525050565b600082825260208201905092915050565b600061369c82613362565b6136a68185613680565b93506136b681856020860161337e565b6136bf816133b1565b840191505092915050565b60006060830160008301516136e26000860182613671565b5060208301516136f56020860182613671565b506040830151848203604086015261370d8282613691565b9150508091505092915050565b600061372683836136ca565b905092915050565b6000602082019050919050565b600061374682613645565b6137508185613650565b93508360208202850161376285613661565b8060005b8581101561379e578484038952815161377f858261371a565b945061378a8361372e565b925060208a01995050600181019050613766565b50829750879550505050505092915050565b600060208201905081810360008301526137ca818461373b565b905092915050565b600081519050919050565b600082825260208201905092915050565b6000819050602082019050919050565b613807816134a0565b82525050565b60006060830160008301516138256000860182613671565b506020830151848203602086015261383d8282613691565b915050604083015161385260408601826137fe565b508091505092915050565b6000613869838361380d565b905092915050565b6000602082019050919050565b6000613889826137d2565b61389381856137dd565b9350836020820285016138a5856137ee565b8060005b858110156138e157848403895281516138c2858261385d565b94506138cd83613871565b925060208a019950506001810190506138a9565b50829750879550505050505092915050565b6000602082019050818103600083015261390d818461387e565b905092915050565b61391e8161332c565b811461392957600080fd5b50565b60008135905061393b81613915565b92915050565b600080604083850312156139585761395761329d565b5b6000613966858286016134f3565b92505060206139778582860161392c565b9150509250929050565b600080fd5b600080fd5b7f4e487b7100000000000000000000000000000000000000000000000000000000600052604160045260246000fd5b6139c3826133b1565b810181811067ffffffffffffffff821117156139e2576139e161398b565b5b80604052505050565b60006139f5613293565b9050613a0182826139ba565b919050565b600067ffffffffffffffff821115613a2157613a2061398b565b5b613a2a826133b1565b9050602081019050919050565b82818337600083830152505050565b6000613a59613a5484613a06565b6139eb565b905082815260208101848484011115613a7557613a74613986565b5b613a80848285613a37565b509392505050565b600082601f830112613a9d57613a9c613981565b5b8135613aad848260208601613a46565b91505092915050565b60008060008060808587031215613ad057613acf61329d565b5b6000613ade878288016134f3565b9450506020613aef878288016134f3565b9350506040613b008782880161343e565b925050606085013567ffffffffffffffff811115613b2157613b206132a2565b5b613b2d87828801613a88565b91505092959194509250565b600067ffffffffffffffff821115613b5457613b5361398b565b5b613b5d826133b1565b9050602081019050919050565b6000613b7d613b7884613b39565b6139eb565b905082815260208101848484011115613b9957613b98613986565b5b613ba4848285613a37565b509392505050565b600082601f830112613bc157613bc0613981565b5b8135613bd1848260208601613b6a565b91505092915050565b600060208284031215613bf057613bef61329d565b5b600082013567ffffffffffffffff811115613c0e57613c0d6132a2565b5b613c1a84828501613bac565b91505092915050565b60008060408385031215613c3a57613c3961329d565b5b6000613c48858286016134f3565b9250506020613c59858286016134f3565b9150509250929050565b6000606082019050613c786000830186613548565b613c856020830185613548565b8181036040830152613c9781846133c2565b9050949350505050565b7f4e487b7100000000000000000000000000000000000000000000000000000000600052602260045260246000fd5b60006002820490506001821680613ce857607f821691505b60208210811415613cfc57613cfb613ca1565b5b50919050565b7f4552433732313a20617070726f76656420717565727920666f72206e6f6e657860008201527f697374656e7420746f6b656e0000000000000000000000000000000000000000602082015250565b6000613d5e602c8361336d565b9150613d6982613d02565b604082019050919050565b60006020820190508181036000830152613d8d81613d51565b9050919050565b7f4552433732313a20617070726f76616c20746f2063757272656e74206f776e6560008201527f7200000000000000000000000000000000000000000000000000000000000000602082015250565b6000613df060218361336d565b9150613dfb82613d94565b604082019050919050565b60006020820190508181036000830152613e1f81613de3565b9050919050565b7f4552433732313a20617070726f76652063616c6c6572206973206e6f74206f7760008201527f6e6572206e6f7220617070726f76656420666f7220616c6c0000000000000000602082015250565b6000613e8260388361336d565b9150613e8d82613e26565b604082019050919050565b60006020820190508181036000830152613eb181613e75565b9050919050565b7f4552433732313a207472616e736665722063616c6c6572206973206e6f74206f60008201527f776e6572206e6f7220617070726f766564000000000000000000000000000000602082015250565b6000613f1460318361336d565b9150613f1f82613eb8565b604082019050919050565b60006020820190508181036000830152613f4381613f07565b9050919050565b7f4e6f74206f776e6572206f66207468697320746f6b656e000000000000000000600082015250565b6000613f8060178361336d565b9150613f8b82613f4a565b602082019050919050565b60006020820190508181036000830152613faf81613f73565b9050919050565b7f5072696365207a65726f00000000000000000000000000000000000000000000600082015250565b6000613fec600a8361336d565b9150613ff782613fb6565b602082019050919050565b6000602082019050818103600083015261401b81613fdf565b9050919050565b7f4f776e61626c653a2063616c6c6572206973206e6f7420746865206f776e6572600082015250565b600061405860208361336d565b915061406382614022565b602082019050919050565b600060208201905081810360008301526140878161404b565b9050919050565b7f4f6e6c7920546f6b656e206f776e65722063616e206275726e2074686520746f60008201527f6b656e0000000000000000000000000000000000000000000000000000000000602082015250565b60006140ea60238361336d565b91506140f58261408e565b604082019050919050565b60006020820190508181036000830152614119816140dd565b9050919050565b7f4e487b7100000000000000000000000000000000000000000000000000000000600052601160045260246000fd5b600061415a8261341d565b9150600082141561416e5761416d614120565b5b600182039050919050565b7f4e487b7100000000000000000000000000000000000000000000000000000000600052603260045260246000fd5b60006141b38261341d565b91507fffffffffffffffffffffffffffffffffffffffffffffffffffffffffffffffff8214156141e6576141e5614120565b5b600182019050919050565b7f4552433732313a206f776e657220717565727920666f72206e6f6e657869737460008201527f656e7420746f6b656e0000000000000000000000000000000000000000000000602082015250565b600061424d60298361336d565b9150614258826141f1565b604082019050919050565b6000602082019050818103600083015261427c81614240565b9050919050565b7f4552433732313a2062616c616e636520717565727920666f7220746865207a6560008201527f726f206164647265737300000000000000000000000000000000000000000000602082015250565b60006142df602a8361336d565b91506142ea82614283565b604082019050919050565b6000602082019050818103600083015261430e816142d2565b9050919050565b7f4552433732313a20617070726f766520746f2063616c6c657200000000000000600082015250565b600061434b60198361336d565b915061435682614315565b602082019050919050565b6000602082019050818103600083015261437a8161433e565b9050919050565b7f4f6e6c7920546f6b656e206f776e65722063616e207472616e73666572206f7760008201527f6e6572736869702074686520746f6b656e000000000000000000000000000000602082015250565b60006143dd60318361336d565b91506143e882614381565b604082019050919050565b6000602082019050818103600083015261440c816143d0565b9050919050565b7f4552433732314d657461646174613a2055524920717565727920666f72206e6f60008201527f6e6578697374656e7420746f6b656e0000000000000000000000000000000000602082015250565b600061446f602f8361336d565b915061447a82614413565b604082019050919050565b6000602082019050818103600083015261449e81614462565b9050919050565b600081905092915050565b60006144bb82613362565b6144c581856144a5565b93506144d581856020860161337e565b80840191505092915050565b60006144ed82856144b0565b91506144f982846144b0565b91508190509392505050565b600060408201905061451a60008301856134b2565b6145276020830184613548565b9392505050565b7f546f6b656e206973206e6f7420666f722073616c650000000000000000000000600082015250565b600061456460158361336d565b915061456f8261452e565b602082019050919050565b6000602082019050818103600083015261459381614557565b9050919050565b7f53656c6c65722063616e6e6f7420626520746865206275796572000000000000600082015250565b60006145d0601a8361336d565b91506145db8261459a565b602082019050919050565b600060208201905081810360008301526145ff816145c3565b9050919050565b600060608201905061461b60008301866134b2565b61462860208301856134b2565b6146356040830184613548565b949350505050565b7f4f776e61626c653a206e6577206f776e657220697320746865207a65726f206160008201527f6464726573730000000000000000000000000000000000000000000000000000602082015250565b600061469960268361336d565b91506146a48261463d565b604082019050919050565b600060208201905081810360008301526146c88161468c565b9050919050565b7f4552433732313a206f70657261746f7220717565727920666f72206e6f6e657860008201527f697374656e7420746f6b656e0000000000000000000000000000000000000000602082015250565b600061472b602c8361336d565b9150614736826146cf565b604082019050919050565b6000602082019050818103600083015261475a8161471e565b9050919050565b7f4552433732313a207472616e73666572206f6620746f6b656e2074686174206960008201527f73206e6f74206f776e0000000000000000000000000000000000000000000000602082015250565b60006147bd60298361336d565b91506147c882614761565b604082019050919050565b600060208201905081810360008301526147ec816147b0565b9050919050565b7f4552433732313a207472616e7366657220746f20746865207a65726f2061646460008201527f7265737300000000000000000000000000000000000000000000000000000000602082015250565b600061484f60248361336d565b915061485a826147f3565b604082019050919050565b6000602082019050818103600083015261487e81614842565b9050919050565b60006148908261341d565b915061489b8361341d565b9250828210156148ae576148ad614120565b5b828203905092915050565b60006148c48261341d565b91506148cf8361341d565b9250827fffffffffffffffffffffffffffffffffffffffffffffffffffffffffffffffff0382111561490457614903614120565b5b828201905092915050565b7f4e487b7100000000000000000000000000000000000000000000000000000000600052603160045260246000fd5b7f4552433732313a207472616e7366657220746f206e6f6e20455243373231526560008201527f63656976657220696d706c656d656e7465720000000000000000000000000000602082015250565b600061499a60328361336d565b91506149a58261493e565b604082019050919050565b600060208201905081810360008301526149c98161498d565b9050919050565b7f43616e6e6f74207472616e73666572206f776e65727368697020746f20307830600082015250565b6000614a0660208361336d565b9150614a11826149d0565b602082019050919050565b60006020820190508181036000830152614a35816149f9565b9050919050565b7f4e487b7100000000000000000000000000000000000000000000000000000000600052601260045260246000fd5b6000614a768261341d565b9150614a818361341d565b925082614a9157614a90614a3c565b5b828204905092915050565b6000614aa78261341d565b9150614ab28361341d565b925082614ac257614ac1614a3c565b5b828206905092915050565b600081519050919050565b600082825260208201905092915050565b6000614af482614acd565b614afe8185614ad8565b9350614b0e81856020860161337e565b614b17816133b1565b840191505092915050565b6000608082019050614b3760008301876134b2565b614b4460208301866134b2565b614b516040830185613548565b8181036060830152614b638184614ae9565b905095945050505050565b600081519050614b7d816132d3565b92915050565b600060208284031215614b9957614b9861329d565b5b6000614ba784828501614b6e565b91505092915050565b7f4552433732313a206d696e7420746f20746865207a65726f2061646472657373600082015250565b6000614be660208361336d565b9150614bf182614bb0565b602082019050919050565b60006020820190508181036000830152614c1581614bd9565b9050919050565b7f4552433732313a20746f6b656e20616c7265616479206d696e74656400000000600082015250565b6000614c52601c8361336d565b9150614c5d82614c1c565b602082019050919050565b60006020820190508181036000830152614c8181614c45565b905091905056fea26469706673582212205778560828189d64366580dcf706a91e7d63b0d5a09f4cd04d1e2c8e9e22aea664736f6c63430008080033",
  "immutableReferences": {},
  "source": "//SPDX-License-Identifier: UNLICENSED\n\npragma solidity >0.8.4;\n\nimport \"@openzeppelin/contracts/access/Ownable.sol\";\nimport \"@openzeppelin/contracts/token/ERC721/ERC721.sol\";\nimport \"@openzeppelin/contracts/utils/Strings.sol\";\n\ncontract VolcanoToken is Ownable, ERC721(\"Token NFT Christian Mora\", \"VTCM\") {\n    uint256 public tokenId = 1;\n    uint256 public marketCap = 0;\n\n    mapping(address => Metadata[]) public ownership;\n    //mapping(address => uint256[]) public tokenIdsByAddress;\n    mapping(uint256 => uint256) public tokenIdToPrice;\n    mapping(uint8 => VisualToken[]) listTokensCirculating; //Only used for visual porpuses\n\n    event NftBought(address _seller, address _buyer, uint256 _price);\n    event NftMinted(address _owner, uint256 _tokenId);\n\n    struct Metadata {\n        uint256 timestamp;\n        uint256 tokenId;\n        string tokenURI;\n    }\n\n    struct VisualToken {\n        uint256 tokenId;\n        string tokenURL;\n        address owner;\n    }\n\n    function getOwnership(address _user)\n        public\n        view\n        returns (Metadata[] memory)\n    {\n        return ownership[_user];\n    }\n\n    /*function getTokenIdsByAddress(address _user)\n        public\n        view\n        returns (uint256[] memory)\n    {\n        return tokenIdsByAddress[_user];\n    }*/\n\n    function mint(string memory uri) public {\n        _safeMint(_msgSender(), tokenId);\n        Metadata[] storage tokens = ownership[_msgSender()];\n        tokens.push(\n            Metadata({\n                timestamp: block.timestamp,\n                tokenId: tokenId,\n                tokenURI: uri\n            })\n        );\n        ownership[_msgSender()] = tokens;\n        //tokenIdsByAddress[_msgSender()].push(tokenId);\n        marketCap++;\n        listTokensCirculating[0].push(VisualToken(tokenId, uri, _msgSender()));\n        emit NftMinted(_msgSender(), tokenId);\n        tokenId++;\n    }\n\n    function burn(uint256 _tokenId) public onlyOwner {\n        require(\n            _msgSender() == ERC721.ownerOf(_tokenId),\n            \"Only Token owner can burn the token\"\n        );\n        _burn(_tokenId);\n        _remove(_msgSender(), _tokenId);\n        marketCap--;\n        for (uint256 i = 0; i < listTokensCirculating[0].length; i++) {\n            if (listTokensCirculating[0][i].tokenId == _tokenId) {\n                delete listTokensCirculating[0][i];\n                break;\n            }\n        }\n    }\n\n    function getListTokensCirculating()\n        public\n        view\n        returns (VisualToken[] memory)\n    {\n        return listTokensCirculating[0];\n    }\n\n    function _remove(address _owner, uint256 _tokenId) internal onlyOwner {\n        Metadata[] storage array = ownership[_owner];\n        uint256 j = 0;\n        for (uint256 i = 0; i < array.length; i++) {\n            if (array[i].tokenId != _tokenId) {\n                array[j] = array[i];\n                j++;\n            }\n        }\n        array.pop();\n        ownership[_owner] = array;\n    }\n\n    function transfer(\n        address _from,\n        address _to,\n        uint256 _tokenId\n    ) public {\n        require(\n            _from == ERC721.ownerOf(_tokenId),\n            \"Only Token owner can transfer ownership the token\"\n        );\n\n        safeTransferFrom(_from, _to, _tokenId);\n        _transferOwnership(_from, _to, _tokenId);\n    }\n\n    function _transferOwnership(\n        address _from,\n        address _to,\n        uint256 _tokenId\n    ) internal {\n        require(_to != address(0), \"Cannot transfer ownership to 0x0\");\n        require(\n            _to == ERC721.ownerOf(_tokenId),\n            \"Only Token owner can transfer ownership the token\"\n        );\n        Metadata[] storage arrayFrom = ownership[_from];\n        Metadata[] storage arrayTo = ownership[_to];\n        uint256 j = 0;\n        for (uint256 i = 0; i < arrayFrom.length; i++) {\n            if (arrayFrom[i].tokenId == _tokenId) {\n                arrayTo.push(arrayFrom[i]);\n            } else {\n                arrayFrom[j] = arrayFrom[i];\n                j++;\n            }\n        }\n        arrayFrom.pop();\n        ownership[_to] = arrayTo;\n        ownership[_from] = arrayFrom;\n        _updateOwnerVisualToken(_tokenId, _to);\n    }\n\n    function _updateOwnerVisualToken(uint256 _tokenId, address _to) private {\n        VisualToken[] storage list = listTokensCirculating[0];\n        for (uint256 i = 0; i < list.length; i++) {\n            if (list[i].tokenId == _tokenId) {\n                VisualToken storage token = list[i];\n                token.owner = _to;\n                break;\n            }\n        }\n    }\n\n    function allowBuy(\n        uint256 _tokenId,\n        uint256 _price,\n        address buyer\n    ) external {\n        require(\n            _msgSender() == ERC721.ownerOf(_tokenId),\n            \"Not owner of this token\"\n        );\n        require(_price > 0, \"Price zero\");\n        tokenIdToPrice[_tokenId] = _price;\n        approve(buyer, _tokenId);\n    }\n\n    function disallowBuy(uint256 _tokenId) external {\n        require(_msgSender() == ownerOf(_tokenId), \"Not owner of this token\");\n        tokenIdToPrice[_tokenId] = 0;\n    }\n\n    function buy(uint256 _tokenId) external payable {\n        uint256 price = tokenIdToPrice[_tokenId];\n        require(price > 0, \"Token is not for sale\");\n        //require(msg.value == price, \"Price of token is not correct\");\n        address buyer = _msgSender();\n        address seller = ownerOf(_tokenId);\n        require(buyer != seller, \"Seller cannot be the buyer\");\n        transfer(seller, buyer, _tokenId);\n        tokenIdToPrice[_tokenId] = 0; // not for sale anymore\n        payable(seller).transfer(msg.value); // send the ETH to the seller\n\n        emit NftBought(seller, buyer, msg.value);\n    }\n}\n",
  "sourcePath": "/opt/blockchain/dapp-nfts/contracts/VolcanoToken.sol",
  "compiler": {
    "name": "solc",
    "version": "0.8.8+commit.dddeac2f.Emscripten.clang"
  },
  "schemaVersion": "3.4.3",
  "updatedAt": "2021-09-28T03:12:51.123Z",
  "networkType": "ethereum",
  "devdoc": {
    "kind": "dev",
    "methods": {
      "approve(address,uint256)": {
        "details": "See {IERC721-approve}."
      },
      "balanceOf(address)": {
        "details": "See {IERC721-balanceOf}."
      },
      "getApproved(uint256)": {
        "details": "See {IERC721-getApproved}."
      },
      "isApprovedForAll(address,address)": {
        "details": "See {IERC721-isApprovedForAll}."
      },
      "name()": {
        "details": "See {IERC721Metadata-name}."
      },
      "owner()": {
        "details": "Returns the address of the current owner."
      },
      "ownerOf(uint256)": {
        "details": "See {IERC721-ownerOf}."
      },
      "renounceOwnership()": {
        "details": "Leaves the contract without owner. It will not be possible to call `onlyOwner` functions anymore. Can only be called by the current owner. NOTE: Renouncing ownership will leave the contract without an owner, thereby removing any functionality that is only available to the owner."
      },
      "safeTransferFrom(address,address,uint256)": {
        "details": "See {IERC721-safeTransferFrom}."
      },
      "safeTransferFrom(address,address,uint256,bytes)": {
        "details": "See {IERC721-safeTransferFrom}."
      },
      "setApprovalForAll(address,bool)": {
        "details": "See {IERC721-setApprovalForAll}."
      },
      "supportsInterface(bytes4)": {
        "details": "See {IERC165-supportsInterface}."
      },
      "symbol()": {
        "details": "See {IERC721Metadata-symbol}."
      },
      "tokenURI(uint256)": {
        "details": "See {IERC721Metadata-tokenURI}."
      },
      "transferFrom(address,address,uint256)": {
        "details": "See {IERC721-transferFrom}."
      },
      "transferOwnership(address)": {
        "details": "Transfers ownership of the contract to a new account (`newOwner`). Can only be called by the current owner."
      }
    },
    "version": 1
  },
  "userdoc": {
    "kind": "user",
    "methods": {},
    "version": 1
  }
}