{
  "contractName": "VolcanoToken",
  "abi": [
    {
      "anonymous": false,
      "inputs": [
        {
          "indexed": true,
          "internalType": "address",
          "name": "owner",
          "type": "address"
        },
        {
          "indexed": true,
          "internalType": "address",
          "name": "approved",
          "type": "address"
        },
        {
          "indexed": true,
          "internalType": "uint256",
          "name": "tokenId",
          "type": "uint256"
        }
      ],
      "name": "Approval",
      "type": "event"
    },
    {
      "anonymous": false,
      "inputs": [
        {
          "indexed": true,
          "internalType": "address",
          "name": "owner",
          "type": "address"
        },
        {
          "indexed": true,
          "internalType": "address",
          "name": "operator",
          "type": "address"
        },
        {
          "indexed": false,
          "internalType": "bool",
          "name": "approved",
          "type": "bool"
        }
      ],
      "name": "ApprovalForAll",
      "type": "event"
    },
    {
      "anonymous": false,
      "inputs": [
        {
          "indexed": false,
          "internalType": "address",
          "name": "_seller",
          "type": "address"
        },
        {
          "indexed": false,
          "internalType": "address",
          "name": "_buyer",
          "type": "address"
        },
        {
          "indexed": false,
          "internalType": "uint256",
          "name": "_price",
          "type": "uint256"
        }
      ],
      "name": "NftBought",
      "type": "event"
    },
    {
      "anonymous": false,
      "inputs": [
        {
          "indexed": true,
          "internalType": "address",
          "name": "previousOwner",
          "type": "address"
        },
        {
          "indexed": true,
          "internalType": "address",
          "name": "newOwner",
          "type": "address"
        }
      ],
      "name": "OwnershipTransferred",
      "type": "event"
    },
    {
      "anonymous": false,
      "inputs": [
        {
          "indexed": true,
          "internalType": "address",
          "name": "from",
          "type": "address"
        },
        {
          "indexed": true,
          "internalType": "address",
          "name": "to",
          "type": "address"
        },
        {
          "indexed": true,
          "internalType": "uint256",
          "name": "tokenId",
          "type": "uint256"
        }
      ],
      "name": "Transfer",
      "type": "event"
    },
    {
      "inputs": [
        {
          "internalType": "address",
          "name": "to",
          "type": "address"
        },
        {
          "internalType": "uint256",
          "name": "tokenId",
          "type": "uint256"
        }
      ],
      "name": "approve",
      "outputs": [],
      "stateMutability": "nonpayable",
      "type": "function"
    },
    {
      "inputs": [
        {
          "internalType": "address",
          "name": "owner",
          "type": "address"
        }
      ],
      "name": "balanceOf",
      "outputs": [
        {
          "internalType": "uint256",
          "name": "",
          "type": "uint256"
        }
      ],
      "stateMutability": "view",
      "type": "function",
      "constant": true
    },
    {
      "inputs": [
        {
          "internalType": "uint256",
          "name": "tokenId",
          "type": "uint256"
        }
      ],
      "name": "getApproved",
      "outputs": [
        {
          "internalType": "address",
          "name": "",
          "type": "address"
        }
      ],
      "stateMutability": "view",
      "type": "function",
      "constant": true
    },
    {
      "inputs": [
        {
          "internalType": "address",
          "name": "owner",
          "type": "address"
        },
        {
          "internalType": "address",
          "name": "operator",
          "type": "address"
        }
      ],
      "name": "isApprovedForAll",
      "outputs": [
        {
          "internalType": "bool",
          "name": "",
          "type": "bool"
        }
      ],
      "stateMutability": "view",
      "type": "function",
      "constant": true
    },
    {
      "inputs": [],
      "name": "name",
      "outputs": [
        {
          "internalType": "string",
          "name": "",
          "type": "string"
        }
      ],
      "stateMutability": "view",
      "type": "function",
      "constant": true
    },
    {
      "inputs": [],
      "name": "owner",
      "outputs": [
        {
          "internalType": "address",
          "name": "",
          "type": "address"
        }
      ],
      "stateMutability": "view",
      "type": "function",
      "constant": true
    },
    {
      "inputs": [
        {
          "internalType": "uint256",
          "name": "tokenId",
          "type": "uint256"
        }
      ],
      "name": "ownerOf",
      "outputs": [
        {
          "internalType": "address",
          "name": "",
          "type": "address"
        }
      ],
      "stateMutability": "view",
      "type": "function",
      "constant": true
    },
    {
      "inputs": [
        {
          "internalType": "address",
          "name": "",
          "type": "address"
        },
        {
          "internalType": "uint256",
          "name": "",
          "type": "uint256"
        }
      ],
      "name": "ownership",
      "outputs": [
        {
          "internalType": "uint256",
          "name": "timestamp",
          "type": "uint256"
        },
        {
          "internalType": "uint256",
          "name": "tokenId",
          "type": "uint256"
        },
        {
          "internalType": "string",
          "name": "tokenURI",
          "type": "string"
        }
      ],
      "stateMutability": "view",
      "type": "function",
      "constant": true
    },
    {
      "inputs": [],
      "name": "renounceOwnership",
      "outputs": [],
      "stateMutability": "nonpayable",
      "type": "function"
    },
    {
      "inputs": [
        {
          "internalType": "address",
          "name": "from",
          "type": "address"
        },
        {
          "internalType": "address",
          "name": "to",
          "type": "address"
        },
        {
          "internalType": "uint256",
          "name": "tokenId",
          "type": "uint256"
        }
      ],
      "name": "safeTransferFrom",
      "outputs": [],
      "stateMutability": "nonpayable",
      "type": "function"
    },
    {
      "inputs": [
        {
          "internalType": "address",
          "name": "from",
          "type": "address"
        },
        {
          "internalType": "address",
          "name": "to",
          "type": "address"
        },
        {
          "internalType": "uint256",
          "name": "tokenId",
          "type": "uint256"
        },
        {
          "internalType": "bytes",
          "name": "_data",
          "type": "bytes"
        }
      ],
      "name": "safeTransferFrom",
      "outputs": [],
      "stateMutability": "nonpayable",
      "type": "function"
    },
    {
      "inputs": [
        {
          "internalType": "address",
          "name": "operator",
          "type": "address"
        },
        {
          "internalType": "bool",
          "name": "approved",
          "type": "bool"
        }
      ],
      "name": "setApprovalForAll",
      "outputs": [],
      "stateMutability": "nonpayable",
      "type": "function"
    },
    {
      "inputs": [
        {
          "internalType": "bytes4",
          "name": "interfaceId",
          "type": "bytes4"
        }
      ],
      "name": "supportsInterface",
      "outputs": [
        {
          "internalType": "bool",
          "name": "",
          "type": "bool"
        }
      ],
      "stateMutability": "view",
      "type": "function",
      "constant": true
    },
    {
      "inputs": [],
      "name": "symbol",
      "outputs": [
        {
          "internalType": "string",
          "name": "",
          "type": "string"
        }
      ],
      "stateMutability": "view",
      "type": "function",
      "constant": true
    },
    {
      "inputs": [],
      "name": "tokenId",
      "outputs": [
        {
          "internalType": "uint256",
          "name": "",
          "type": "uint256"
        }
      ],
      "stateMutability": "view",
      "type": "function",
      "constant": true
    },
    {
      "inputs": [
        {
          "internalType": "uint256",
          "name": "",
          "type": "uint256"
        }
      ],
      "name": "tokenIdToPrice",
      "outputs": [
        {
          "internalType": "uint256",
          "name": "",
          "type": "uint256"
        }
      ],
      "stateMutability": "view",
      "type": "function",
      "constant": true
    },
    {
      "inputs": [
        {
          "internalType": "uint256",
          "name": "tokenId",
          "type": "uint256"
        }
      ],
      "name": "tokenURI",
      "outputs": [
        {
          "internalType": "string",
          "name": "",
          "type": "string"
        }
      ],
      "stateMutability": "view",
      "type": "function",
      "constant": true
    },
    {
      "inputs": [
        {
          "internalType": "address",
          "name": "from",
          "type": "address"
        },
        {
          "internalType": "address",
          "name": "to",
          "type": "address"
        },
        {
          "internalType": "uint256",
          "name": "tokenId",
          "type": "uint256"
        }
      ],
      "name": "transferFrom",
      "outputs": [],
      "stateMutability": "nonpayable",
      "type": "function"
    },
    {
      "inputs": [
        {
          "internalType": "address",
          "name": "newOwner",
          "type": "address"
        }
      ],
      "name": "transferOwnership",
      "outputs": [],
      "stateMutability": "nonpayable",
      "type": "function"
    },
    {
      "inputs": [
        {
          "internalType": "address",
          "name": "_user",
          "type": "address"
        }
      ],
      "name": "getOwnership",
      "outputs": [
        {
          "components": [
            {
              "internalType": "uint256",
              "name": "timestamp",
              "type": "uint256"
            },
            {
              "internalType": "uint256",
              "name": "tokenId",
              "type": "uint256"
            },
            {
              "internalType": "string",
              "name": "tokenURI",
              "type": "string"
            }
          ],
          "internalType": "struct VolcanoToken.Metadata[]",
          "name": "",
          "type": "tuple[]"
        }
      ],
      "stateMutability": "view",
      "type": "function",
      "constant": true
    },
    {
      "inputs": [
        {
          "internalType": "string",
          "name": "uri",
          "type": "string"
        }
      ],
      "name": "mint",
      "outputs": [],
      "stateMutability": "nonpayable",
      "type": "function"
    },
    {
      "inputs": [
        {
          "internalType": "uint256",
          "name": "_tokenId",
          "type": "uint256"
        }
      ],
      "name": "burn",
      "outputs": [],
      "stateMutability": "nonpayable",
      "type": "function"
    },
    {
      "inputs": [
        {
          "internalType": "address",
          "name": "_from",
          "type": "address"
        },
        {
          "internalType": "address",
          "name": "_to",
          "type": "address"
        },
        {
          "internalType": "uint256",
          "name": "_tokenId",
          "type": "uint256"
        }
      ],
      "name": "transfer",
      "outputs": [],
      "stateMutability": "nonpayable",
      "type": "function"
    },
    {
      "inputs": [
        {
          "internalType": "uint256",
          "name": "_tokenId",
          "type": "uint256"
        },
        {
          "internalType": "uint256",
          "name": "_price",
          "type": "uint256"
        }
      ],
      "name": "allowBuy",
      "outputs": [],
      "stateMutability": "nonpayable",
      "type": "function"
    },
    {
      "inputs": [
        {
          "internalType": "uint256",
          "name": "_tokenId",
          "type": "uint256"
        }
      ],
      "name": "disallowBuy",
      "outputs": [],
      "stateMutability": "nonpayable",
      "type": "function"
    },
    {
      "inputs": [
        {
          "internalType": "uint256",
          "name": "_tokenId",
          "type": "uint256"
        }
      ],
      "name": "buy",
      "outputs": [],
      "stateMutability": "payable",
      "type": "function",
      "payable": true
    }
  ],
  "bytecode": "0x608060405260016007553480156200001657600080fd5b506040518060400160405280601881526020017f546f6b656e204e46542043687269737469616e204d6f726100000000000000008152506040518060400160405280600481526020017f5654434d00000000000000000000000000000000000000000000000000000000815250620000a362000097620000dd60201b60201c565b620000e560201b60201c565b8160019080519060200190620000bb929190620001a9565b508060029080519060200190620000d4929190620001a9565b505050620002be565b600033905090565b60008060009054906101000a900473ffffffffffffffffffffffffffffffffffffffff169050816000806101000a81548173ffffffffffffffffffffffffffffffffffffffff021916908373ffffffffffffffffffffffffffffffffffffffff1602179055508173ffffffffffffffffffffffffffffffffffffffff168173ffffffffffffffffffffffffffffffffffffffff167f8be0079c531659141344cd1fd0a4f28419497f9722a3daafe3b4186f6b6457e060405160405180910390a35050565b828054620001b79062000259565b90600052602060002090601f016020900481019282620001db576000855562000227565b82601f10620001f657805160ff191683800117855562000227565b8280016001018555821562000227579182015b828111156200022657825182559160200191906001019062000209565b5b5090506200023691906200023a565b5090565b5b80821115620002555760008160009055506001016200023b565b5090565b600060028204905060018216806200027257607f821691505b602082108114156200028957620002886200028f565b5b50919050565b7f4e487b7100000000000000000000000000000000000000000000000000000000600052602260045260246000fd5b61468a80620002ce6000396000f3fe6080604052600436106101815760003560e01c806395d89b41116100d1578063d49913121161008a578063e985e9c511610064578063e985e9c51461056d578063ee9bfc8c146105aa578063f2fde38b146105e9578063f4812eb91461061257610181565b8063d4991312146104ff578063d85d3d2714610528578063d96a094a1461055157610181565b806395d89b41146103f3578063a22cb4651461041e578063b88d4fde14610447578063bbb5e8d314610470578063beabacc814610499578063c87b56dd146104c257610181565b80632b681a541161013e5780636352211e116101185780636352211e1461033757806370a0823114610374578063715018a6146103b15780638da5cb5b146103c857610181565b80632b681a54146102a857806342842e0e146102e557806342966c681461030e57610181565b806301ffc9a71461018657806306fdde03146101c3578063081812fc146101ee578063095ea7b31461022b57806317d70f7c1461025457806323b872dd1461027f575b600080fd5b34801561019257600080fd5b506101ad60048036038101906101a891906130a8565b61064f565b6040516101ba91906137d5565b60405180910390f35b3480156101cf57600080fd5b506101d8610731565b6040516101e591906137f0565b60405180910390f35b3480156101fa57600080fd5b506102156004803603810190610210919061314b565b6107c3565b6040516102229190613715565b60405180910390f35b34801561023757600080fd5b50610252600480360381019061024d9190613068565b610848565b005b34801561026057600080fd5b50610269610960565b6040516102769190613b12565b60405180910390f35b34801561028b57600080fd5b506102a660048036038101906102a19190612f52565b610966565b005b3480156102b457600080fd5b506102cf60048036038101906102ca9190612ee5565b6109c6565b6040516102dc91906137b3565b60405180910390f35b3480156102f157600080fd5b5061030c60048036038101906103079190612f52565b610b0a565b005b34801561031a57600080fd5b506103356004803603810190610330919061314b565b610b2a565b005b34801561034357600080fd5b5061035e6004803603810190610359919061314b565b610c40565b60405161036b9190613715565b60405180910390f35b34801561038057600080fd5b5061039b60048036038101906103969190612ee5565b610cf2565b6040516103a89190613b12565b60405180910390f35b3480156103bd57600080fd5b506103c6610daa565b005b3480156103d457600080fd5b506103dd610e32565b6040516103ea9190613715565b60405180910390f35b3480156103ff57600080fd5b50610408610e5b565b60405161041591906137f0565b60405180910390f35b34801561042a57600080fd5b5061044560048036038101906104409190613028565b610eed565b005b34801561045357600080fd5b5061046e60048036038101906104699190612fa5565b61106e565b005b34801561047c57600080fd5b5061049760048036038101906104929190613178565b6110d0565b005b3480156104a557600080fd5b506104c060048036038101906104bb9190612f52565b6111ac565b005b3480156104ce57600080fd5b506104e960048036038101906104e4919061314b565b61123d565b6040516104f691906137f0565b60405180910390f35b34801561050b57600080fd5b506105266004803603810190610521919061314b565b6112e4565b005b34801561053457600080fd5b5061054f600480360381019061054a9190613102565b61137d565b005b61056b6004803603810190610566919061314b565b6114c6565b005b34801561057957600080fd5b50610594600480360381019061058f9190612f12565b611697565b6040516105a191906137d5565b60405180910390f35b3480156105b657600080fd5b506105d160048036038101906105cc9190613068565b61172b565b6040516105e093929190613b2d565b60405180910390f35b3480156105f557600080fd5b50610610600480360381019061060b9190612ee5565b6117fa565b005b34801561061e57600080fd5b506106396004803603810190610634919061314b565b6118f2565b6040516106469190613b12565b60405180910390f35b60007f80ac58cd000000000000000000000000000000000000000000000000000000007bffffffffffffffffffffffffffffffffffffffffffffffffffffffff1916827bffffffffffffffffffffffffffffffffffffffffffffffffffffffff1916148061071a57507f5b5e139f000000000000000000000000000000000000000000000000000000007bffffffffffffffffffffffffffffffffffffffffffffffffffffffff1916827bffffffffffffffffffffffffffffffffffffffffffffffffffffffff1916145b8061072a57506107298261190a565b5b9050919050565b60606001805461074090613df0565b80601f016020809104026020016040519081016040528092919081815260200182805461076c90613df0565b80156107b95780601f1061078e576101008083540402835291602001916107b9565b820191906000526020600020905b81548152906001019060200180831161079c57829003601f168201915b5050505050905090565b60006107ce82611974565b61080d576040517f08c379a0000000000000000000000000000000000000000000000000000000008152600401610804906139b2565b60405180910390fd5b6005600083815260200190815260200160002060009054906101000a900473ffffffffffffffffffffffffffffffffffffffff169050919050565b600061085382610c40565b90508073ffffffffffffffffffffffffffffffffffffffff168373ffffffffffffffffffffffffffffffffffffffff1614156108c4576040517f08c379a00000000000000000000000000000000000000000000000000000000081526004016108bb90613a72565b60405180910390fd5b8073ffffffffffffffffffffffffffffffffffffffff166108e36119e0565b73ffffffffffffffffffffffffffffffffffffffff16148061091257506109118161090c6119e0565b611697565b5b610951576040517f08c379a000000000000000000000000000000000000000000000000000000000815260040161094890613932565b60405180910390fd5b61095b83836119e8565b505050565b60075481565b6109776109716119e0565b82611aa1565b6109b6576040517f08c379a00000000000000000000000000000000000000000000000000000000081526004016109ad90613ad2565b60405180910390fd5b6109c1838383611b7f565b505050565b6060600860008373ffffffffffffffffffffffffffffffffffffffff1673ffffffffffffffffffffffffffffffffffffffff168152602001908152602001600020805480602002602001604051908101604052809291908181526020016000905b82821015610aff57838290600052602060002090600302016040518060600160405290816000820154815260200160018201548152602001600282018054610a6e90613df0565b80601f0160208091040260200160405190810160405280929190818152602001828054610a9a90613df0565b8015610ae75780601f10610abc57610100808354040283529160200191610ae7565b820191906000526020600020905b815481529060010190602001808311610aca57829003601f168201915b50505050508152505081526020019060010190610a27565b505050509050919050565b610b258383836040518060200160405280600081525061106e565b505050565b610b326119e0565b73ffffffffffffffffffffffffffffffffffffffff16610b50610e32565b73ffffffffffffffffffffffffffffffffffffffff1614610ba6576040517f08c379a0000000000000000000000000000000000000000000000000000000008152600401610b9d906139f2565b60405180910390fd5b610baf81610c40565b73ffffffffffffffffffffffffffffffffffffffff16610bcd6119e0565b73ffffffffffffffffffffffffffffffffffffffff1614610c23576040517f08c379a0000000000000000000000000000000000000000000000000000000008152600401610c1a90613af2565b60405180910390fd5b610c2c81611ddb565b610c3d610c376119e0565b82611eec565b50565b6000806003600084815260200190815260200160002060009054906101000a900473ffffffffffffffffffffffffffffffffffffffff169050600073ffffffffffffffffffffffffffffffffffffffff168173ffffffffffffffffffffffffffffffffffffffff161415610ce9576040517f08c379a0000000000000000000000000000000000000000000000000000000008152600401610ce090613972565b60405180910390fd5b80915050919050565b60008073ffffffffffffffffffffffffffffffffffffffff168273ffffffffffffffffffffffffffffffffffffffff161415610d63576040517f08c379a0000000000000000000000000000000000000000000000000000000008152600401610d5a90613952565b60405180910390fd5b600460008373ffffffffffffffffffffffffffffffffffffffff1673ffffffffffffffffffffffffffffffffffffffff168152602001908152602001600020549050919050565b610db26119e0565b73ffffffffffffffffffffffffffffffffffffffff16610dd0610e32565b73ffffffffffffffffffffffffffffffffffffffff1614610e26576040517f08c379a0000000000000000000000000000000000000000000000000000000008152600401610e1d906139f2565b60405180910390fd5b610e306000612121565b565b60008060009054906101000a900473ffffffffffffffffffffffffffffffffffffffff16905090565b606060028054610e6a90613df0565b80601f0160208091040260200160405190810160405280929190818152602001828054610e9690613df0565b8015610ee35780601f10610eb857610100808354040283529160200191610ee3565b820191906000526020600020905b815481529060010190602001808311610ec657829003601f168201915b5050505050905090565b610ef56119e0565b73ffffffffffffffffffffffffffffffffffffffff168273ffffffffffffffffffffffffffffffffffffffff161415610f63576040517f08c379a0000000000000000000000000000000000000000000000000000000008152600401610f5a906138f2565b60405180910390fd5b8060066000610f706119e0565b73ffffffffffffffffffffffffffffffffffffffff1673ffffffffffffffffffffffffffffffffffffffff16815260200190815260200160002060008473ffffffffffffffffffffffffffffffffffffffff1673ffffffffffffffffffffffffffffffffffffffff16815260200190815260200160002060006101000a81548160ff0219169083151502179055508173ffffffffffffffffffffffffffffffffffffffff1661101d6119e0565b73ffffffffffffffffffffffffffffffffffffffff167f17307eab39ab6107e8899845ad3d59bd9653f200f220920489ca2b5937696c318360405161106291906137d5565b60405180910390a35050565b61107f6110796119e0565b83611aa1565b6110be576040517f08c379a00000000000000000000000000000000000000000000000000000000081526004016110b590613ad2565b60405180910390fd5b6110ca848484846121e5565b50505050565b6110d982610c40565b73ffffffffffffffffffffffffffffffffffffffff166110f76119e0565b73ffffffffffffffffffffffffffffffffffffffff161461114d576040517f08c379a000000000000000000000000000000000000000000000000000000000815260040161114490613ab2565b60405180910390fd5b60008111611190576040517f08c379a000000000000000000000000000000000000000000000000000000000815260040161118790613a32565b60405180910390fd5b8060096000848152602001908152602001600020819055505050565b6111b581610c40565b73ffffffffffffffffffffffffffffffffffffffff168373ffffffffffffffffffffffffffffffffffffffff1614611222576040517f08c379a000000000000000000000000000000000000000000000000000000000815260040161121990613812565b60405180910390fd5b61122d838383610b0a565b611238838383612241565b505050565b606061124882611974565b611287576040517f08c379a000000000000000000000000000000000000000000000000000000000815260040161127e90613a52565b60405180910390fd5b60006112916125fb565b905060008151116112b157604051806020016040528060008152506112dc565b806112bb84612612565b6040516020016112cc9291906136f1565b6040516020818303038152906040525b915050919050565b6112ed81610c40565b73ffffffffffffffffffffffffffffffffffffffff1661130b6119e0565b73ffffffffffffffffffffffffffffffffffffffff1614611361576040517f08c379a000000000000000000000000000000000000000000000000000000000815260040161135890613ab2565b60405180910390fd5b6000600960008381526020019081526020016000208190555050565b6113906113886119e0565b600754612773565b60006008600061139e6119e0565b73ffffffffffffffffffffffffffffffffffffffff1673ffffffffffffffffffffffffffffffffffffffff1681526020019081526020016000209050806040518060600160405280428152602001600754815260200184815250908060018154018082558091505060019003906000526020600020906003020160009091909190915060008201518160000155602082015181600101556040820151816002019080519060200190611451929190612b69565b50505080600860006114616119e0565b73ffffffffffffffffffffffffffffffffffffffff1673ffffffffffffffffffffffffffffffffffffffff1681526020019081526020016000209080546114a9929190612bef565b50600760008154809291906114bd90613e53565b91905055505050565b60006009600083815260200190815260200160002054905060008111611521576040517f08c379a000000000000000000000000000000000000000000000000000000000815260040161151890613852565b60405180910390fd5b803414611563576040517f08c379a000000000000000000000000000000000000000000000000000000000815260040161155a906139d2565b60405180910390fd5b600061156d6119e0565b9050600061157a84610c40565b90508073ffffffffffffffffffffffffffffffffffffffff168273ffffffffffffffffffffffffffffffffffffffff1614156115eb576040517f08c379a00000000000000000000000000000000000000000000000000000000081526004016115e290613a92565b60405180910390fd5b6115f68183866111ac565b600060096000868152602001908152602001600020819055508073ffffffffffffffffffffffffffffffffffffffff166108fc349081150290604051600060405180830381858888f19350505050158015611655573d6000803e3d6000fd5b507f608f6ac9327c2bf4d3c77adf447d2c448ba7b0971e0aaa9aa03f7ac29d874a4481833460405161168993929190613730565b60405180910390a150505050565b6000600660008473ffffffffffffffffffffffffffffffffffffffff1673ffffffffffffffffffffffffffffffffffffffff16815260200190815260200160002060008373ffffffffffffffffffffffffffffffffffffffff1673ffffffffffffffffffffffffffffffffffffffff16815260200190815260200160002060009054906101000a900460ff16905092915050565b6008602052816000526040600020818154811061174757600080fd5b90600052602060002090600302016000915091505080600001549080600101549080600201805461177790613df0565b80601f01602080910402602001604051908101604052809291908181526020018280546117a390613df0565b80156117f05780601f106117c5576101008083540402835291602001916117f0565b820191906000526020600020905b8154815290600101906020018083116117d357829003601f168201915b5050505050905083565b6118026119e0565b73ffffffffffffffffffffffffffffffffffffffff16611820610e32565b73ffffffffffffffffffffffffffffffffffffffff1614611876576040517f08c379a000000000000000000000000000000000000000000000000000000000815260040161186d906139f2565b60405180910390fd5b600073ffffffffffffffffffffffffffffffffffffffff168173ffffffffffffffffffffffffffffffffffffffff1614156118e6576040517f08c379a00000000000000000000000000000000000000000000000000000000081526004016118dd90613872565b60405180910390fd5b6118ef81612121565b50565b60096020528060005260406000206000915090505481565b60007f01ffc9a7000000000000000000000000000000000000000000000000000000007bffffffffffffffffffffffffffffffffffffffffffffffffffffffff1916827bffffffffffffffffffffffffffffffffffffffffffffffffffffffff1916149050919050565b60008073ffffffffffffffffffffffffffffffffffffffff166003600084815260200190815260200160002060009054906101000a900473ffffffffffffffffffffffffffffffffffffffff1673ffffffffffffffffffffffffffffffffffffffff1614159050919050565b600033905090565b816005600083815260200190815260200160002060006101000a81548173ffffffffffffffffffffffffffffffffffffffff021916908373ffffffffffffffffffffffffffffffffffffffff160217905550808273ffffffffffffffffffffffffffffffffffffffff16611a5b83610c40565b73ffffffffffffffffffffffffffffffffffffffff167f8c5be1e5ebec7d5bd14f71427d1e84f3dd0314c0f7b2291e5b200ac8c7c3b92560405160405180910390a45050565b6000611aac82611974565b611aeb576040517f08c379a0000000000000000000000000000000000000000000000000000000008152600401611ae290613912565b60405180910390fd5b6000611af683610c40565b90508073ffffffffffffffffffffffffffffffffffffffff168473ffffffffffffffffffffffffffffffffffffffff161480611b6557508373ffffffffffffffffffffffffffffffffffffffff16611b4d846107c3565b73ffffffffffffffffffffffffffffffffffffffff16145b80611b765750611b758185611697565b5b91505092915050565b8273ffffffffffffffffffffffffffffffffffffffff16611b9f82610c40565b73ffffffffffffffffffffffffffffffffffffffff1614611bf5576040517f08c379a0000000000000000000000000000000000000000000000000000000008152600401611bec90613a12565b60405180910390fd5b600073ffffffffffffffffffffffffffffffffffffffff168273ffffffffffffffffffffffffffffffffffffffff161415611c65576040517f08c379a0000000000000000000000000000000000000000000000000000000008152600401611c5c906138d2565b60405180910390fd5b611c70838383612791565b611c7b6000826119e8565b6001600460008573ffffffffffffffffffffffffffffffffffffffff1673ffffffffffffffffffffffffffffffffffffffff1681526020019081526020016000206000828254611ccb9190613d06565b925050819055506001600460008473ffffffffffffffffffffffffffffffffffffffff1673ffffffffffffffffffffffffffffffffffffffff1681526020019081526020016000206000828254611d229190613c7f565b92505081905550816003600083815260200190815260200160002060006101000a81548173ffffffffffffffffffffffffffffffffffffffff021916908373ffffffffffffffffffffffffffffffffffffffff160217905550808273ffffffffffffffffffffffffffffffffffffffff168473ffffffffffffffffffffffffffffffffffffffff167fddf252ad1be2c89b69c2b068fc378daa952ba7f163c4a11628f55a4df523b3ef60405160405180910390a4505050565b6000611de682610c40565b9050611df481600084612791565b611dff6000836119e8565b6001600460008373ffffffffffffffffffffffffffffffffffffffff1673ffffffffffffffffffffffffffffffffffffffff1681526020019081526020016000206000828254611e4f9190613d06565b925050819055506003600083815260200190815260200160002060006101000a81549073ffffffffffffffffffffffffffffffffffffffff021916905581600073ffffffffffffffffffffffffffffffffffffffff168273ffffffffffffffffffffffffffffffffffffffff167fddf252ad1be2c89b69c2b068fc378daa952ba7f163c4a11628f55a4df523b3ef60405160405180910390a45050565b611ef46119e0565b73ffffffffffffffffffffffffffffffffffffffff16611f12610e32565b73ffffffffffffffffffffffffffffffffffffffff1614611f68576040517f08c379a0000000000000000000000000000000000000000000000000000000008152600401611f5f906139f2565b60405180910390fd5b6000600860008473ffffffffffffffffffffffffffffffffffffffff1673ffffffffffffffffffffffffffffffffffffffff16815260200190815260200160002090506000805b82805490508110156120815783838281548110611fcf57611fce613f89565b5b9060005260206000209060030201600101541461206e57828181548110611ff957611ff8613f89565b5b906000526020600020906003020183838154811061201a57612019613f89565b5b90600052602060002090600302016000820154816000015560018201548160010155600282018160020190805461205090613df0565b61205b929190612c7b565b50905050818061206a90613e53565b9250505b808061207990613e53565b915050611faf565b508180548061209357612092613f5a565b5b600190038181906000526020600020906003020160008082016000905560018201600090556002820160006120c89190612d08565b5050905581600860008673ffffffffffffffffffffffffffffffffffffffff1673ffffffffffffffffffffffffffffffffffffffff16815260200190815260200160002090805461211a929190612bef565b5050505050565b60008060009054906101000a900473ffffffffffffffffffffffffffffffffffffffff169050816000806101000a81548173ffffffffffffffffffffffffffffffffffffffff021916908373ffffffffffffffffffffffffffffffffffffffff1602179055508173ffffffffffffffffffffffffffffffffffffffff168173ffffffffffffffffffffffffffffffffffffffff167f8be0079c531659141344cd1fd0a4f28419497f9722a3daafe3b4186f6b6457e060405160405180910390a35050565b6121f0848484611b7f565b6121fc84848484612796565b61223b576040517f08c379a000000000000000000000000000000000000000000000000000000000815260040161223290613832565b60405180910390fd5b50505050565b600073ffffffffffffffffffffffffffffffffffffffff168273ffffffffffffffffffffffffffffffffffffffff1614156122b1576040517f08c379a00000000000000000000000000000000000000000000000000000000081526004016122a8906138b2565b60405180910390fd5b6122ba81610c40565b73ffffffffffffffffffffffffffffffffffffffff168273ffffffffffffffffffffffffffffffffffffffff1614612327576040517f08c379a000000000000000000000000000000000000000000000000000000000815260040161231e90613812565b60405180910390fd5b6000600860008573ffffffffffffffffffffffffffffffffffffffff1673ffffffffffffffffffffffffffffffffffffffff16815260200190815260200160002090506000600860008573ffffffffffffffffffffffffffffffffffffffff1673ffffffffffffffffffffffffffffffffffffffff16815260200190815260200160002090506000805b838054905081101561250a57848482815481106123d1576123d0613f89565b5b906000526020600020906003020160010154141561246f57828482815481106123fd576123fc613f89565b5b906000526020600020906003020190806001815401808255809150506001900390600052602060002090600302016000909190919091506000820154816000015560018201548160010155600282018160020190805461245c90613df0565b612467929190612c7b565b5050506124f7565b83818154811061248257612481613f89565b5b90600052602060002090600302018483815481106124a3576124a2613f89565b5b9060005260206000209060030201600082015481600001556001820154816001015560028201816002019080546124d990613df0565b6124e4929190612c7b565b5090505081806124f390613e53565b9250505b808061250290613e53565b9150506123b1565b508280548061251c5761251b613f5a565b5b600190038181906000526020600020906003020160008082016000905560018201600090556002820160006125519190612d08565b5050905581600860008773ffffffffffffffffffffffffffffffffffffffff1673ffffffffffffffffffffffffffffffffffffffff1681526020019081526020016000209080546125a3929190612bef565b5082600860008873ffffffffffffffffffffffffffffffffffffffff1673ffffffffffffffffffffffffffffffffffffffff1681526020019081526020016000209080546125f2929190612bef565b50505050505050565b606060405180602001604052806000815250905090565b6060600082141561265a576040518060400160405280600181526020017f3000000000000000000000000000000000000000000000000000000000000000815250905061276e565b600082905060005b6000821461268c57808061267590613e53565b915050600a826126859190613cd5565b9150612662565b60008167ffffffffffffffff8111156126a8576126a7613fb8565b5b6040519080825280601f01601f1916602001820160405280156126da5781602001600182028036833780820191505090505b5090505b60008514612767576001826126f39190613d06565b9150600a856127029190613e9c565b603061270e9190613c7f565b60f81b81838151811061272457612723613f89565b5b60200101907effffffffffffffffffffffffffffffffffffffffffffffffffffffffffffff1916908160001a905350600a856127609190613cd5565b94506126de565b8093505050505b919050565b61278d82826040518060200160405280600081525061292d565b5050565b505050565b60006127b78473ffffffffffffffffffffffffffffffffffffffff16612988565b15612920578373ffffffffffffffffffffffffffffffffffffffff1663150b7a026127e06119e0565b8786866040518563ffffffff1660e01b81526004016128029493929190613767565b602060405180830381600087803b15801561281c57600080fd5b505af192505050801561284d57506040513d601f19601f8201168201806040525081019061284a91906130d5565b60015b6128d0573d806000811461287d576040519150601f19603f3d011682016040523d82523d6000602084013e612882565b606091505b506000815114156128c8576040517f08c379a00000000000000000000000000000000000000000000000000000000081526004016128bf90613832565b60405180910390fd5b805181602001fd5b63150b7a0260e01b7bffffffffffffffffffffffffffffffffffffffffffffffffffffffff1916817bffffffffffffffffffffffffffffffffffffffffffffffffffffffff191614915050612925565b600190505b949350505050565b612937838361299b565b6129446000848484612796565b612983576040517f08c379a000000000000000000000000000000000000000000000000000000000815260040161297a90613832565b60405180910390fd5b505050565b600080823b905060008111915050919050565b600073ffffffffffffffffffffffffffffffffffffffff168273ffffffffffffffffffffffffffffffffffffffff161415612a0b576040517f08c379a0000000000000000000000000000000000000000000000000000000008152600401612a0290613992565b60405180910390fd5b612a1481611974565b15612a54576040517f08c379a0000000000000000000000000000000000000000000000000000000008152600401612a4b90613892565b60405180910390fd5b612a6060008383612791565b6001600460008473ffffffffffffffffffffffffffffffffffffffff1673ffffffffffffffffffffffffffffffffffffffff1681526020019081526020016000206000828254612ab09190613c7f565b92505081905550816003600083815260200190815260200160002060006101000a81548173ffffffffffffffffffffffffffffffffffffffff021916908373ffffffffffffffffffffffffffffffffffffffff160217905550808273ffffffffffffffffffffffffffffffffffffffff16600073ffffffffffffffffffffffffffffffffffffffff167fddf252ad1be2c89b69c2b068fc378daa952ba7f163c4a11628f55a4df523b3ef60405160405180910390a45050565b828054612b7590613df0565b90600052602060002090601f016020900481019282612b975760008555612bde565b82601f10612bb057805160ff1916838001178555612bde565b82800160010185558215612bde579182015b82811115612bdd578251825591602001919060010190612bc2565b5b509050612beb9190612d48565b5090565b828054828255906000526020600020906003028101928215612c6a5760005260206000209160030282015b82811115612c6957828260008201548160000155600182015481600101556002820181600201908054612c4c90613df0565b612c57929190612c7b565b50505091600301919060030190612c1a565b5b509050612c779190612d65565b5090565b828054612c8790613df0565b90600052602060002090601f016020900481019282612ca95760008555612cf7565b82601f10612cba5780548555612cf7565b82800160010185558215612cf757600052602060002091601f016020900482015b82811115612cf6578254825591600101919060010190612cdb565b5b509050612d049190612d48565b5090565b508054612d1490613df0565b6000825580601f10612d265750612d45565b601f016020900490600052602060002090810190612d449190612d48565b5b50565b5b80821115612d61576000816000905550600101612d49565b5090565b5b80821115612d98576000808201600090556001820160009055600282016000612d8f9190612d08565b50600301612d66565b5090565b6000612daf612daa84613b90565b613b6b565b905082815260208101848484011115612dcb57612dca613fec565b5b612dd6848285613dae565b509392505050565b6000612df1612dec84613bc1565b613b6b565b905082815260208101848484011115612e0d57612e0c613fec565b5b612e18848285613dae565b509392505050565b600081359050612e2f816145f8565b92915050565b600081359050612e448161460f565b92915050565b600081359050612e5981614626565b92915050565b600081519050612e6e81614626565b92915050565b600082601f830112612e8957612e88613fe7565b5b8135612e99848260208601612d9c565b91505092915050565b600082601f830112612eb757612eb6613fe7565b5b8135612ec7848260208601612dde565b91505092915050565b600081359050612edf8161463d565b92915050565b600060208284031215612efb57612efa613ff6565b5b6000612f0984828501612e20565b91505092915050565b60008060408385031215612f2957612f28613ff6565b5b6000612f3785828601612e20565b9250506020612f4885828601612e20565b9150509250929050565b600080600060608486031215612f6b57612f6a613ff6565b5b6000612f7986828701612e20565b9350506020612f8a86828701612e20565b9250506040612f9b86828701612ed0565b9150509250925092565b60008060008060808587031215612fbf57612fbe613ff6565b5b6000612fcd87828801612e20565b9450506020612fde87828801612e20565b9350506040612fef87828801612ed0565b925050606085013567ffffffffffffffff8111156130105761300f613ff1565b5b61301c87828801612e74565b91505092959194509250565b6000806040838503121561303f5761303e613ff6565b5b600061304d85828601612e20565b925050602061305e85828601612e35565b9150509250929050565b6000806040838503121561307f5761307e613ff6565b5b600061308d85828601612e20565b925050602061309e85828601612ed0565b9150509250929050565b6000602082840312156130be576130bd613ff6565b5b60006130cc84828501612e4a565b91505092915050565b6000602082840312156130eb576130ea613ff6565b5b60006130f984828501612e5f565b91505092915050565b60006020828403121561311857613117613ff6565b5b600082013567ffffffffffffffff81111561313657613135613ff1565b5b61314284828501612ea2565b91505092915050565b60006020828403121561316157613160613ff6565b5b600061316f84828501612ed0565b91505092915050565b6000806040838503121561318f5761318e613ff6565b5b600061319d85828601612ed0565b92505060206131ae85828601612ed0565b9150509250929050565b60006131c48383613683565b905092915050565b6131d581613d3a565b82525050565b60006131e682613c02565b6131f08185613c30565b93508360208202850161320285613bf2565b8060005b8581101561323e578484038952815161321f85826131b8565b945061322a83613c23565b925060208a01995050600181019050613206565b50829750879550505050505092915050565b61325981613d4c565b82525050565b600061326a82613c0d565b6132748185613c41565b9350613284818560208601613dbd565b61328d81613ffb565b840191505092915050565b60006132a382613c18565b6132ad8185613c52565b93506132bd818560208601613dbd565b6132c681613ffb565b840191505092915050565b60006132dc82613c18565b6132e68185613c63565b93506132f6818560208601613dbd565b6132ff81613ffb565b840191505092915050565b600061331582613c18565b61331f8185613c74565b935061332f818560208601613dbd565b80840191505092915050565b6000613348603183613c63565b91506133538261400c565b604082019050919050565b600061336b603283613c63565b91506133768261405b565b604082019050919050565b600061338e601a83613c63565b9150613399826140aa565b602082019050919050565b60006133b1602683613c63565b91506133bc826140d3565b604082019050919050565b60006133d4601c83613c63565b91506133df82614122565b602082019050919050565b60006133f7602083613c63565b91506134028261414b565b602082019050919050565b600061341a602483613c63565b915061342582614174565b604082019050919050565b600061343d601983613c63565b9150613448826141c3565b602082019050919050565b6000613460602c83613c63565b915061346b826141ec565b604082019050919050565b6000613483603883613c63565b915061348e8261423b565b604082019050919050565b60006134a6602a83613c63565b91506134b18261428a565b604082019050919050565b60006134c9602983613c63565b91506134d4826142d9565b604082019050919050565b60006134ec602083613c63565b91506134f782614328565b602082019050919050565b600061350f602c83613c63565b915061351a82614351565b604082019050919050565b6000613532600f83613c63565b915061353d826143a0565b602082019050919050565b6000613555602083613c63565b9150613560826143c9565b602082019050919050565b6000613578602983613c63565b9150613583826143f2565b604082019050919050565b600061359b600a83613c63565b91506135a682614441565b602082019050919050565b60006135be602f83613c63565b91506135c98261446a565b604082019050919050565b60006135e1602183613c63565b91506135ec826144b9565b604082019050919050565b6000613604601a83613c63565b915061360f82614508565b602082019050919050565b6000613627601783613c63565b915061363282614531565b602082019050919050565b600061364a603183613c63565b91506136558261455a565b604082019050919050565b600061366d602383613c63565b9150613678826145a9565b604082019050919050565b600060608301600083015161369b60008601826136d3565b5060208301516136ae60208601826136d3565b50604083015184820360408601526136c68282613298565b9150508091505092915050565b6136dc81613da4565b82525050565b6136eb81613da4565b82525050565b60006136fd828561330a565b9150613709828461330a565b91508190509392505050565b600060208201905061372a60008301846131cc565b92915050565b600060608201905061374560008301866131cc565b61375260208301856131cc565b61375f60408301846136e2565b949350505050565b600060808201905061377c60008301876131cc565b61378960208301866131cc565b61379660408301856136e2565b81810360608301526137a8818461325f565b905095945050505050565b600060208201905081810360008301526137cd81846131db565b905092915050565b60006020820190506137ea6000830184613250565b92915050565b6000602082019050818103600083015261380a81846132d1565b905092915050565b6000602082019050818103600083015261382b8161333b565b9050919050565b6000602082019050818103600083015261384b8161335e565b9050919050565b6000602082019050818103600083015261386b81613381565b9050919050565b6000602082019050818103600083015261388b816133a4565b9050919050565b600060208201905081810360008301526138ab816133c7565b9050919050565b600060208201905081810360008301526138cb816133ea565b9050919050565b600060208201905081810360008301526138eb8161340d565b9050919050565b6000602082019050818103600083015261390b81613430565b9050919050565b6000602082019050818103600083015261392b81613453565b9050919050565b6000602082019050818103600083015261394b81613476565b9050919050565b6000602082019050818103600083015261396b81613499565b9050919050565b6000602082019050818103600083015261398b816134bc565b9050919050565b600060208201905081810360008301526139ab816134df565b9050919050565b600060208201905081810360008301526139cb81613502565b9050919050565b600060208201905081810360008301526139eb81613525565b9050919050565b60006020820190508181036000830152613a0b81613548565b9050919050565b60006020820190508181036000830152613a2b8161356b565b9050919050565b60006020820190508181036000830152613a4b8161358e565b9050919050565b60006020820190508181036000830152613a6b816135b1565b9050919050565b60006020820190508181036000830152613a8b816135d4565b9050919050565b60006020820190508181036000830152613aab816135f7565b9050919050565b60006020820190508181036000830152613acb8161361a565b9050919050565b60006020820190508181036000830152613aeb8161363d565b9050919050565b60006020820190508181036000830152613b0b81613660565b9050919050565b6000602082019050613b2760008301846136e2565b92915050565b6000606082019050613b4260008301866136e2565b613b4f60208301856136e2565b8181036040830152613b6181846132d1565b9050949350505050565b6000613b75613b86565b9050613b818282613e22565b919050565b6000604051905090565b600067ffffffffffffffff821115613bab57613baa613fb8565b5b613bb482613ffb565b9050602081019050919050565b600067ffffffffffffffff821115613bdc57613bdb613fb8565b5b613be582613ffb565b9050602081019050919050565b6000819050602082019050919050565b600081519050919050565b600081519050919050565b600081519050919050565b6000602082019050919050565b600082825260208201905092915050565b600082825260208201905092915050565b600082825260208201905092915050565b600082825260208201905092915050565b600081905092915050565b6000613c8a82613da4565b9150613c9583613da4565b9250827fffffffffffffffffffffffffffffffffffffffffffffffffffffffffffffffff03821115613cca57613cc9613ecd565b5b828201905092915050565b6000613ce082613da4565b9150613ceb83613da4565b925082613cfb57613cfa613efc565b5b828204905092915050565b6000613d1182613da4565b9150613d1c83613da4565b925082821015613d2f57613d2e613ecd565b5b828203905092915050565b6000613d4582613d84565b9050919050565b60008115159050919050565b60007fffffffff0000000000000000000000000000000000000000000000000000000082169050919050565b600073ffffffffffffffffffffffffffffffffffffffff82169050919050565b6000819050919050565b82818337600083830152505050565b60005b83811015613ddb578082015181840152602081019050613dc0565b83811115613dea576000848401525b50505050565b60006002820490506001821680613e0857607f821691505b60208210811415613e1c57613e1b613f2b565b5b50919050565b613e2b82613ffb565b810181811067ffffffffffffffff82111715613e4a57613e49613fb8565b5b80604052505050565b6000613e5e82613da4565b91507fffffffffffffffffffffffffffffffffffffffffffffffffffffffffffffffff821415613e9157613e90613ecd565b5b600182019050919050565b6000613ea782613da4565b9150613eb283613da4565b925082613ec257613ec1613efc565b5b828206905092915050565b7f4e487b7100000000000000000000000000000000000000000000000000000000600052601160045260246000fd5b7f4e487b7100000000000000000000000000000000000000000000000000000000600052601260045260246000fd5b7f4e487b7100000000000000000000000000000000000000000000000000000000600052602260045260246000fd5b7f4e487b7100000000000000000000000000000000000000000000000000000000600052603160045260246000fd5b7f4e487b7100000000000000000000000000000000000000000000000000000000600052603260045260246000fd5b7f4e487b7100000000000000000000000000000000000000000000000000000000600052604160045260246000fd5b600080fd5b600080fd5b600080fd5b600080fd5b6000601f19601f8301169050919050565b7f4f6e6c7920546f6b656e206f776e65722063616e207472616e73666572206f7760008201527f6e6572736869702074686520746f6b656e000000000000000000000000000000602082015250565b7f4552433732313a207472616e7366657220746f206e6f6e20455243373231526560008201527f63656976657220696d706c656d656e7465720000000000000000000000000000602082015250565b7f5468697320746f6b656e206973206e6f7420666f722073616c65000000000000600082015250565b7f4f776e61626c653a206e6577206f776e657220697320746865207a65726f206160008201527f6464726573730000000000000000000000000000000000000000000000000000602082015250565b7f4552433732313a20746f6b656e20616c7265616479206d696e74656400000000600082015250565b7f43616e6e6f74207472616e73666572206f776e65727368697020746f20307830600082015250565b7f4552433732313a207472616e7366657220746f20746865207a65726f2061646460008201527f7265737300000000000000000000000000000000000000000000000000000000602082015250565b7f4552433732313a20617070726f766520746f2063616c6c657200000000000000600082015250565b7f4552433732313a206f70657261746f7220717565727920666f72206e6f6e657860008201527f697374656e7420746f6b656e0000000000000000000000000000000000000000602082015250565b7f4552433732313a20617070726f76652063616c6c6572206973206e6f74206f7760008201527f6e6572206e6f7220617070726f76656420666f7220616c6c0000000000000000602082015250565b7f4552433732313a2062616c616e636520717565727920666f7220746865207a6560008201527f726f206164647265737300000000000000000000000000000000000000000000602082015250565b7f4552433732313a206f776e657220717565727920666f72206e6f6e657869737460008201527f656e7420746f6b656e0000000000000000000000000000000000000000000000602082015250565b7f4552433732313a206d696e7420746f20746865207a65726f2061646472657373600082015250565b7f4552433732313a20617070726f76656420717565727920666f72206e6f6e657860008201527f697374656e7420746f6b656e0000000000000000000000000000000000000000602082015250565b7f496e636f72726563742076616c75650000000000000000000000000000000000600082015250565b7f4f776e61626c653a2063616c6c6572206973206e6f7420746865206f776e6572600082015250565b7f4552433732313a207472616e73666572206f6620746f6b656e2074686174206960008201527f73206e6f74206f776e0000000000000000000000000000000000000000000000602082015250565b7f5072696365207a65726f00000000000000000000000000000000000000000000600082015250565b7f4552433732314d657461646174613a2055524920717565727920666f72206e6f60008201527f6e6578697374656e7420746f6b656e0000000000000000000000000000000000602082015250565b7f4552433732313a20617070726f76616c20746f2063757272656e74206f776e6560008201527f7200000000000000000000000000000000000000000000000000000000000000602082015250565b7f53656c6c65722063616e6e6f7420626520746865206275796572000000000000600082015250565b7f4e6f74206f776e6572206f66207468697320746f6b656e000000000000000000600082015250565b7f4552433732313a207472616e736665722063616c6c6572206973206e6f74206f60008201527f776e6572206e6f7220617070726f766564000000000000000000000000000000602082015250565b7f4f6e6c7920546f6b656e206f776e65722063616e206275726e2074686520746f60008201527f6b656e0000000000000000000000000000000000000000000000000000000000602082015250565b61460181613d3a565b811461460c57600080fd5b50565b61461881613d4c565b811461462357600080fd5b50565b61462f81613d58565b811461463a57600080fd5b50565b61464681613da4565b811461465157600080fd5b5056fea2646970667358221220dcb70ad528dd35d47e836e2456916af73105366f5f7bcb5eaf1b93731b6aa96b64736f6c63430008070033",
  "immutableReferences": {},
  "source": "//SPDX-License-Identifier: UNLICENSED\n\npragma solidity >0.8.4;\n\nimport \"@openzeppelin/contracts/access/Ownable.sol\";\nimport \"@openzeppelin/contracts/token/ERC721/ERC721.sol\";\nimport \"@openzeppelin/contracts/utils/Strings.sol\";\n\ncontract VolcanoToken is Ownable, ERC721(\"Token NFT Christian Mora\", \"VTCM\") {\n    uint256 public tokenId = 1;\n\n    mapping(address => Metadata[]) public ownership;\n    mapping(uint256 => uint256) public tokenIdToPrice;\n\n    event NftBought(address _seller, address _buyer, uint256 _price);\n\n    struct Metadata {\n        uint256 timestamp;\n        uint256 tokenId;\n        string tokenURI;\n    }\n\n    function getOwnership(address _user)\n        public\n        view\n        returns (Metadata[] memory)\n    {\n        return ownership[_user];\n    }\n\n    function mint(string memory uri) public {\n        _safeMint(_msgSender(), tokenId);\n        Metadata[] storage tokens = ownership[_msgSender()];\n        tokens.push(\n            Metadata({\n                timestamp: block.timestamp,\n                tokenId: tokenId,\n                tokenURI: uri\n            })\n        );\n        ownership[_msgSender()] = tokens;\n        tokenId++;\n    }\n\n    function burn(uint256 _tokenId) public onlyOwner {\n        require(\n            _msgSender() == ERC721.ownerOf(_tokenId),\n            \"Only Token owner can burn the token\"\n        );\n        _burn(_tokenId);\n        _remove(_msgSender(), _tokenId);\n    }\n\n    function _remove(address _owner, uint256 _tokenId) internal onlyOwner {\n        Metadata[] storage array = ownership[_owner];\n        uint256 j = 0;\n        for (uint256 i = 0; i < array.length; i++) {\n            if (array[i].tokenId != _tokenId) {\n                array[j] = array[i];\n                j++;\n            }\n        }\n        array.pop();\n        ownership[_owner] = array;\n    }\n\n    function transfer(\n        address _from,\n        address _to,\n        uint256 _tokenId\n    ) public {\n        require(\n            _from == ERC721.ownerOf(_tokenId),\n            \"Only Token owner can transfer ownership the token\"\n        );\n\n        safeTransferFrom(_from, _to, _tokenId);\n        _transferOwnership(_from, _to, _tokenId);\n    }\n\n    function _transferOwnership(\n        address _from,\n        address _to,\n        uint256 _tokenId\n    ) internal {\n        require(_to != address(0), \"Cannot transfer ownership to 0x0\");\n        require(\n            _to == ERC721.ownerOf(_tokenId),\n            \"Only Token owner can transfer ownership the token\"\n        );\n        Metadata[] storage arrayFrom = ownership[_from];\n        Metadata[] storage arrayTo = ownership[_to];\n        uint256 j = 0;\n        for (uint256 i = 0; i < arrayFrom.length; i++) {\n            if (arrayFrom[i].tokenId == _tokenId) {\n                arrayTo.push(arrayFrom[i]);\n            } else {\n                arrayFrom[j] = arrayFrom[i];\n                j++;\n            }\n        }\n        arrayFrom.pop();\n        ownership[_to] = arrayTo;\n        ownership[_from] = arrayFrom;\n    }\n\n    function allowBuy(uint256 _tokenId, uint256 _price) external {\n        require(\n            _msgSender() == ERC721.ownerOf(_tokenId),\n            \"Not owner of this token\"\n        );\n        require(_price > 0, \"Price zero\");\n        tokenIdToPrice[_tokenId] = _price;\n    }\n\n    function disallowBuy(uint256 _tokenId) external {\n        require(_msgSender() == ownerOf(_tokenId), \"Not owner of this token\");\n        tokenIdToPrice[_tokenId] = 0;\n    }\n\n    function buy(uint256 _tokenId) external payable {\n        uint256 price = tokenIdToPrice[_tokenId];\n        require(price > 0, \"This token is not for sale\");\n        require(msg.value == price, \"Incorrect value\");\n        address buyer = _msgSender();\n        address seller = ownerOf(_tokenId);\n        require(buyer != seller, \"Seller cannot be the buyer\");\n        transfer(seller, buyer, _tokenId);\n        tokenIdToPrice[_tokenId] = 0; // not for sale anymore\n        payable(seller).transfer(msg.value); // send the ETH to the seller\n\n        emit NftBought(seller, buyer, msg.value);\n    }\n}\n",
  "sourcePath": "/opt/blockchain/dapp-nfts/contracts/VolcanoToken.sol",
  "compiler": {
    "name": "solc",
    "version": "0.8.7+commit.e28d00a7.Emscripten.clang"
  },
  "schemaVersion": "3.4.3",
  "updatedAt": "2021-09-17T04:14:42.901Z",
  "networkType": "ethereum",
  "devdoc": {
    "kind": "dev",
    "methods": {
      "approve(address,uint256)": {
        "details": "See {IERC721-approve}."
      },
      "balanceOf(address)": {
        "details": "See {IERC721-balanceOf}."
      },
      "getApproved(uint256)": {
        "details": "See {IERC721-getApproved}."
      },
      "isApprovedForAll(address,address)": {
        "details": "See {IERC721-isApprovedForAll}."
      },
      "name()": {
        "details": "See {IERC721Metadata-name}."
      },
      "owner()": {
        "details": "Returns the address of the current owner."
      },
      "ownerOf(uint256)": {
        "details": "See {IERC721-ownerOf}."
      },
      "renounceOwnership()": {
        "details": "Leaves the contract without owner. It will not be possible to call `onlyOwner` functions anymore. Can only be called by the current owner. NOTE: Renouncing ownership will leave the contract without an owner, thereby removing any functionality that is only available to the owner."
      },
      "safeTransferFrom(address,address,uint256)": {
        "details": "See {IERC721-safeTransferFrom}."
      },
      "safeTransferFrom(address,address,uint256,bytes)": {
        "details": "See {IERC721-safeTransferFrom}."
      },
      "setApprovalForAll(address,bool)": {
        "details": "See {IERC721-setApprovalForAll}."
      },
      "supportsInterface(bytes4)": {
        "details": "See {IERC165-supportsInterface}."
      },
      "symbol()": {
        "details": "See {IERC721Metadata-symbol}."
      },
      "tokenURI(uint256)": {
        "details": "See {IERC721Metadata-tokenURI}."
      },
      "transferFrom(address,address,uint256)": {
        "details": "See {IERC721-transferFrom}."
      },
      "transferOwnership(address)": {
        "details": "Transfers ownership of the contract to a new account (`newOwner`). Can only be called by the current owner."
      }
    },
    "version": 1
  },
  "userdoc": {
    "kind": "user",
    "methods": {},
    "version": 1
  }
}